{
  "contractName": "BoostoPool",
  "abi": [
    {
      "constant": true,
      "inputs": [],
      "name": "BSTAmount",
      "outputs": [
        {
          "name": "",
          "type": "uint256"
        }
      ],
      "payable": false,
      "stateMutability": "view",
      "type": "function"
    },
    {
      "constant": true,
      "inputs": [],
      "name": "totalInvestors",
      "outputs": [
        {
          "name": "",
          "type": "uint256"
        }
      ],
      "payable": false,
      "stateMutability": "view",
      "type": "function"
    },
    {
      "constant": true,
      "inputs": [
        {
          "name": "",
          "type": "uint256"
        }
      ],
      "name": "winnerList",
      "outputs": [
        {
          "name": "",
          "type": "address"
        }
      ],
      "payable": false,
      "stateMutability": "view",
      "type": "function"
    },
    {
      "constant": true,
      "inputs": [],
      "name": "paidWinners",
      "outputs": [
        {
          "name": "",
          "type": "uint256"
        }
      ],
      "payable": false,
      "stateMutability": "view",
      "type": "function"
    },
    {
      "constant": true,
      "inputs": [
        {
          "name": "",
          "type": "address"
        }
      ],
      "name": "winners",
      "outputs": [
        {
          "name": "",
          "type": "bool"
        }
      ],
      "payable": false,
      "stateMutability": "view",
      "type": "function"
    },
    {
      "constant": true,
      "inputs": [
        {
          "name": "",
          "type": "address"
        }
      ],
      "name": "investors",
      "outputs": [
        {
          "name": "",
          "type": "bool"
        }
      ],
      "payable": false,
      "stateMutability": "view",
      "type": "function"
    },
    {
      "constant": true,
      "inputs": [],
      "name": "bonus",
      "outputs": [
        {
          "name": "",
          "type": "uint256"
        }
      ],
      "payable": false,
      "stateMutability": "view",
      "type": "function"
    },
    {
      "constant": true,
      "inputs": [],
      "name": "unit",
      "outputs": [
        {
          "name": "",
          "type": "uint256"
        }
      ],
      "payable": false,
      "stateMutability": "view",
      "type": "function"
    },
    {
      "constant": true,
      "inputs": [],
      "name": "size",
      "outputs": [
        {
          "name": "",
          "type": "uint256"
        }
      ],
      "payable": false,
      "stateMutability": "view",
      "type": "function"
    },
    {
      "constant": true,
      "inputs": [],
      "name": "bonusInETH",
      "outputs": [
        {
          "name": "",
          "type": "bool"
        }
      ],
      "payable": false,
      "stateMutability": "view",
      "type": "function"
    },
    {
      "constant": true,
      "inputs": [],
      "name": "winnerCount",
      "outputs": [
        {
          "name": "",
          "type": "uint256"
        }
      ],
      "payable": false,
      "stateMutability": "view",
      "type": "function"
    },
    {
      "inputs": [
        {
          "name": "_startDate",
          "type": "uint256"
        },
        {
          "name": "_duration",
          "type": "uint256"
        },
        {
          "name": "_winnerCount",
          "type": "uint256"
        },
        {
          "name": "_bonus",
          "type": "uint256"
        },
        {
          "name": "_bonusInETH",
          "type": "bool"
        },
        {
          "name": "_unit",
          "type": "uint256"
        },
        {
          "name": "_BSTAmount",
          "type": "uint256"
        },
        {
          "name": "_size",
          "type": "uint256"
        }
      ],
      "payable": false,
      "stateMutability": "nonpayable",
      "type": "constructor"
    },
    {
      "payable": true,
      "stateMutability": "payable",
      "type": "fallback"
    },
    {
      "constant": false,
      "inputs": [],
      "name": "adminDropETH",
      "outputs": [],
      "payable": true,
      "stateMutability": "payable",
      "type": "function"
    },
    {
      "constant": false,
      "inputs": [],
      "name": "adminWithdraw",
      "outputs": [],
      "payable": false,
      "stateMutability": "nonpayable",
      "type": "function"
    },
    {
      "constant": false,
      "inputs": [],
      "name": "adminAddWinner",
      "outputs": [],
      "payable": false,
      "stateMutability": "nonpayable",
      "type": "function"
    },
    {
      "constant": true,
      "inputs": [],
      "name": "random",
      "outputs": [
        {
          "name": "",
          "type": "uint256"
        }
      ],
      "payable": false,
      "stateMutability": "view",
      "type": "function"
    },
    {
      "constant": true,
      "inputs": [
        {
          "name": "index",
          "type": "uint256"
        }
      ],
      "name": "getWalletInfoByIndex",
      "outputs": [
        {
          "name": "_addr",
          "type": "address"
        },
        {
          "name": "_isWinner",
          "type": "bool"
        }
      ],
      "payable": false,
      "stateMutability": "view",
      "type": "function"
    },
    {
      "constant": true,
      "inputs": [
        {
          "name": "addr",
          "type": "address"
        }
      ],
      "name": "getWalletInfo",
      "outputs": [
        {
          "name": "_isWinner",
          "type": "bool"
        }
      ],
      "payable": false,
      "stateMutability": "view",
      "type": "function"
    }
  ],
  "bytecode": "0x6080604052734aa26643dcf687b7d755848c66b4a8fe7585ce85600560006101000a81548173ffffffffffffffffffffffffffffffffffffffff021916908373ffffffffffffffffffffffffffffffffffffffff160217905550732c2353f9bc1a122a83e8b7a662289136e6288395600660006101000a81548173ffffffffffffffffffffffffffffffffffffffff021916908373ffffffffffffffffffffffffffffffffffffffff160217905550732c2353f9bc1a122a83e8b7a662289136e6288395600760006101000a81548173ffffffffffffffffffffffffffffffffffffffff021916908373ffffffffffffffffffffffffffffffffffffffff1602179055506000600c5534801561011457600080fd5b50604051610100806113a1833981018060405281019080805190602001909291908051906020019092919080519060200190929190805190602001909291908051906020019092919080519060200190929190805190602001909291908051906020019092919050505087600f819055508660108190555085600b8190555084600d8190555083600e60006101000a81548160ff0219169083151502179055508260088190555081600a819055508060098190555050505050505050506111c1806101e06000396000f3006080604052600436106100f1576000357c0100000000000000000000000000000000000000000000000000000000900463ffffffff168063276eb720146103d157806329b8caff146103fc57806331e6a70714610427578063356f55b71461049f5780633b17ebb1146104a95780635578027e146104c057806356ce8c891461052d5780635ec01e4d146105585780636bd5450a146105835780636f7bc9be146105de57806375b4d78c146106395780637d5c191414610664578063907af6c0146106bf578063949d225d146106ea578063a1577cf514610715578063caa02e0814610744578063f18d20be1461076f575b60006008543414151561010357600080fd5b600360003373ffffffffffffffffffffffffffffffffffffffff1673ffffffffffffffffffffffffffffffffffffffff16815260200190815260200160002060009054906101000a900460ff1615151561015c57600080fd5b6009546000541080156101745750601054600f540142105b80156101825750600f544210155b151561018d57600080fd5b600660009054906101000a900473ffffffffffffffffffffffffffffffffffffffff1673ffffffffffffffffffffffffffffffffffffffff166108fc349081150290604051600060405180830381858888f193505050501580156101f5573d6000803e3d6000fd5b50600560009054906101000a900473ffffffffffffffffffffffffffffffffffffffff1690508073ffffffffffffffffffffffffffffffffffffffff1663a9059cbb33600a546040518363ffffffff167c0100000000000000000000000000000000000000000000000000000000028152600401808373ffffffffffffffffffffffffffffffffffffffff1673ffffffffffffffffffffffffffffffffffffffff16815260200182815260200192505050602060405180830381600087803b1580156102c057600080fd5b505af11580156102d4573d6000803e3d6000fd5b505050506040513d60208110156102ea57600080fd5b8101908080519060200190929190505050503360018080548091906001016103129190611144565b81548110151561031e57fe5b9060005260206000200160006101000a81548173ffffffffffffffffffffffffffffffffffffffff021916908373ffffffffffffffffffffffffffffffffffffffff1602179055506001600360003373ffffffffffffffffffffffffffffffffffffffff1673ffffffffffffffffffffffffffffffffffffffff16815260200190815260200160002060006101000a81548160ff0219169083151502179055506001600080828254019250508190555050005b3480156103dd57600080fd5b506103e6610786565b6040518082815260200191505060405180910390f35b34801561040857600080fd5b5061041161078c565b6040518082815260200191505060405180910390f35b34801561043357600080fd5b5061045260048036038101908080359060200190929190505050610792565b604051808373ffffffffffffffffffffffffffffffffffffffff1673ffffffffffffffffffffffffffffffffffffffff168152602001821515151581526020019250505060405180910390f35b6104a7610825565b005b3480156104b557600080fd5b506104be6108bc565b005b3480156104cc57600080fd5b506104eb60048036038101908080359060200190929190505050610ce3565b604051808273ffffffffffffffffffffffffffffffffffffffff1673ffffffffffffffffffffffffffffffffffffffff16815260200191505060405180910390f35b34801561053957600080fd5b50610542610d21565b6040518082815260200191505060405180910390f35b34801561056457600080fd5b5061056d610d27565b6040518082815260200191505060405180910390f35b34801561058f57600080fd5b506105c4600480360381019080803573ffffffffffffffffffffffffffffffffffffffff169060200190929190505050610d5d565b604051808215151515815260200191505060405180910390f35b3480156105ea57600080fd5b5061061f600480360381019080803573ffffffffffffffffffffffffffffffffffffffff169060200190929190505050610d7d565b604051808215151515815260200191505060405180910390f35b34801561064557600080fd5b5061064e610d9d565b6040518082815260200191505060405180910390f35b34801561067057600080fd5b506106a5600480360381019080803573ffffffffffffffffffffffffffffffffffffffff169060200190929190505050610da3565b604051808215151515815260200191505060405180910390f35b3480156106cb57600080fd5b506106d4610df9565b6040518082815260200191505060405180910390f35b3480156106f657600080fd5b506106ff610dff565b6040518082815260200191505060405180910390f35b34801561072157600080fd5b5061072a610e05565b604051808215151515815260200191505060405180910390f35b34801561075057600080fd5b50610759610e18565b6040518082815260200191505060405180910390f35b34801561077b57600080fd5b50610784610e1e565b005b600a5481565b60005481565b6000806001838154811015156107a457fe5b9060005260206000200160009054906101000a900473ffffffffffffffffffffffffffffffffffffffff169150600460008373ffffffffffffffffffffffffffffffffffffffff1673ffffffffffffffffffffffffffffffffffffffff16815260200190815260200160002060009054906101000a900460ff169050915091565b600760009054906101000a900473ffffffffffffffffffffffffffffffffffffffff1673ffffffffffffffffffffffffffffffffffffffff163373ffffffffffffffffffffffffffffffffffffffff1614151561088157600080fd5b600e60009054906101000a900460ff16151561089957fe5b6108b0600d54600b5461110990919063ffffffff16565b341415156108ba57fe5b565b6000600954600054101515156108d157600080fd5b600760009054906101000a900473ffffffffffffffffffffffffffffffffffffffff1673ffffffffffffffffffffffffffffffffffffffff163373ffffffffffffffffffffffffffffffffffffffff1614151561092d57600080fd5b600b54600c5410151561093c57fe5b610944610d27565b90506004600060018381548110151561095957fe5b9060005260206000200160009054906101000a900473ffffffffffffffffffffffffffffffffffffffff1673ffffffffffffffffffffffffffffffffffffffff1673ffffffffffffffffffffffffffffffffffffffff16815260200190815260200160002060009054906101000a900460ff161515156109d557fe5b6001600460006001848154811015156109ea57fe5b9060005260206000200160009054906101000a900473ffffffffffffffffffffffffffffffffffffffff1673ffffffffffffffffffffffffffffffffffffffff1673ffffffffffffffffffffffffffffffffffffffff16815260200190815260200160002060006101000a81548160ff021916908315150217905550600181815481101515610a7557fe5b9060005260206000200160009054906101000a900473ffffffffffffffffffffffffffffffffffffffff166002600c600081548092919060010191905055815481101515610abf57fe5b9060005260206000200160006101000a81548173ffffffffffffffffffffffffffffffffffffffff021916908373ffffffffffffffffffffffffffffffffffffffff160217905550600e60009054906101000a900460ff1615610ba357600181815481101515610b2b57fe5b9060005260206000200160009054906101000a900473ffffffffffffffffffffffffffffffffffffffff1673ffffffffffffffffffffffffffffffffffffffff166108fc600d549081150290604051600060405180830381858888f19350505050158015610b9d573d6000803e3d6000fd5b50610ce0565b600560009054906101000a900473ffffffffffffffffffffffffffffffffffffffff1673ffffffffffffffffffffffffffffffffffffffff1663a9059cbb600183815481101515610bf057fe5b9060005260206000200160009054906101000a900473ffffffffffffffffffffffffffffffffffffffff16600d546040518363ffffffff167c0100000000000000000000000000000000000000000000000000000000028152600401808373ffffffffffffffffffffffffffffffffffffffff1673ffffffffffffffffffffffffffffffffffffffff16815260200182815260200192505050602060405180830381600087803b158015610ca357600080fd5b505af1158015610cb7573d6000803e3d6000fd5b505050506040513d6020811015610ccd57600080fd5b8101908080519060200190929190505050505b50565b600281815481101515610cf257fe5b906000526020600020016000915054906101000a900473ffffffffffffffffffffffffffffffffffffffff1681565b600c5481565b600060095442446040518083815260200182815260200192505050604051809103902060019004811515610d5757fe5b06905090565b60046020528060005260406000206000915054906101000a900460ff1681565b60036020528060005260406000206000915054906101000a900460ff1681565b600d5481565b6000600460008373ffffffffffffffffffffffffffffffffffffffff1673ffffffffffffffffffffffffffffffffffffffff16815260200190815260200160002060009054906101000a900460ff169050919050565b60085481565b60095481565b600e60009054906101000a900460ff1681565b600b5481565b6000806000600760009054906101000a900473ffffffffffffffffffffffffffffffffffffffff1673ffffffffffffffffffffffffffffffffffffffff163373ffffffffffffffffffffffffffffffffffffffff16141515610e7f57600080fd5b600954600054101580610e985750601054600f54014210155b1515610ea357600080fd5b60095460005411151515610eb357fe5b600560009054906101000a900473ffffffffffffffffffffffffffffffffffffffff1692508273ffffffffffffffffffffffffffffffffffffffff166370a08231306040518263ffffffff167c0100000000000000000000000000000000000000000000000000000000028152600401808273ffffffffffffffffffffffffffffffffffffffff1673ffffffffffffffffffffffffffffffffffffffff168152602001915050602060405180830381600087803b158015610f7357600080fd5b505af1158015610f87573d6000803e3d6000fd5b505050506040513d6020811015610f9d57600080fd5b810190808051906020019092919050505091506000821115611099578273ffffffffffffffffffffffffffffffffffffffff1663a9059cbb33846040518363ffffffff167c0100000000000000000000000000000000000000000000000000000000028152600401808373ffffffffffffffffffffffffffffffffffffffff1673ffffffffffffffffffffffffffffffffffffffff16815260200182815260200192505050602060405180830381600087803b15801561105c57600080fd5b505af1158015611070573d6000803e3d6000fd5b505050506040513d602081101561108657600080fd5b8101908080519060200190929190505050505b3073ffffffffffffffffffffffffffffffffffffffff163190506000811115611104573373ffffffffffffffffffffffffffffffffffffffff166108fc829081150290604051600060405180830381858888f19350505050158015611102573d6000803e3d6000fd5b505b505050565b600080600084141561111e576000915061113d565b828402905082848281151561112f57fe5b0414151561113957fe5b8091505b5092915050565b81548183558181111561116b5781836000526020600020918201910161116a9190611170565b5b505050565b61119291905b8082111561118e576000816000905550600101611176565b5090565b905600a165627a7a72305820a807c9dbe18152cfe8dd5ef0f43f0904b4768b7ba30bb67e616f00537dbb93ca0029",
  "source": "pragma solidity ^0.4.15;\n\nimport 'zeppelin-solidity/contracts/token/ERC20/StandardToken.sol';\n\n/**\n * @title Boosto Pool\n */\ncontract BoostoPool{\n    using SafeMath for uint256;\n\n    // total number of investors\n    uint256 public totalInvestors;\n\n    address[] investorsList;\n    address[] public winnerList;\n\n    mapping(address => bool) public investors;\n    mapping(address => bool) public winners;\n\n    address private BSTContract = 0x4Aa26643dCF687b7D755848C66B4a8fE7585Ce85;\n    address private fundsWallet = 0x2C2353F9bc1A122a83E8B7A662289136E6288395;\n    address private operatorWallet = 0x2C2353F9bc1A122a83E8B7A662289136E6288395;\n\n    uint256 public unit;\n    uint256 public size;\n\n    uint256 public BSTAmount;\n\n    uint256 public winnerCount;\n    uint256 public paidWinners = 0;\n\n    uint256 public bonus;\n    bool public bonusInETH;\n\n    uint256 startDate;\n    uint256 duration; // in seconds\n\n    /**\n     * @dev Creates a new pool\n     */\n    constructor(\n        uint256 _startDate,\n        uint256 _duration,\n        uint256 _winnerCount,\n        uint256 _bonus,\n        bool _bonusInETH,\n        uint256 _unit,\n        uint256 _BSTAmount,\n        uint256 _size\n        ) public{\n        \n        startDate = _startDate;\n        duration = _duration;\n        \n        winnerCount = _winnerCount;\n        bonus = _bonus;\n        bonusInETH = _bonusInETH;\n        unit = _unit;\n        BSTAmount = _BSTAmount;\n        size = _size;\n    }\n\n    /**\n     * @dev Checks if the pool is still open or not\n     */\n    modifier isPoolOpen() {\n        require(totalInvestors < size && now < (startDate + duration) && now >= startDate);\n        _;\n    }\n\n    /**\n     * @dev Checks if the pool is closed\n     */\n    modifier isPoolClosed() {\n        require(totalInvestors >= size || now >= (startDate + duration));\n        _;\n    }\n\n    /**\n     * @dev Checks if the pool is finished successfully\n     */\n    modifier isPoolFinished() {\n        require(totalInvestors >= size);\n        _;\n    }\n\n    /**\n     * @dev modifier for check msg.value\n     */\n    modifier checkInvestAmount(){\n        require(msg.value == unit);\n        _;\n    }\n\n    /**\n     * @dev check if the sender is already invested\n     */\n    modifier notInvestedYet(){\n        require(!investors[msg.sender]);\n        _;\n    }\n\n    /**\n     * @dev check if the sender is admin\n     */\n    modifier isAdmin(){\n        require(msg.sender == operatorWallet);\n        _;\n    }\n\n    /**\n     * @dev fallback function\n     */\n    function() checkInvestAmount notInvestedYet isPoolOpen payable public{\n        fundsWallet.transfer(msg.value);\n\n        StandardToken bst = StandardToken(BSTContract);\n        bst.transfer(msg.sender, BSTAmount);\n\n        investorsList[investorsList.length++] = msg.sender;\n        investors[msg.sender] = true;\n\n        totalInvestors += 1;\n    }\n\n    /**\n     * @dev Allows the admin to tranfer ETH to SC \n     * when bounus is in ETH\n     */\n    function adminDropETH() isAdmin payable public{\n        assert(bonusInETH);\n        assert(msg.value == winnerCount.mul(bonus));\n    }\n\n    /**\n     * @dev Allows the admin to withdraw remaining token and ETH when\n     * the pool is closed and not reached the goal(no rewards)\n     */\n    function adminWithdraw() isAdmin isPoolClosed public{\n        assert(totalInvestors <= size);\n\n        StandardToken bst = StandardToken(BSTContract);\n        uint256 bstBalance = bst.balanceOf(this);\n\n        if(bstBalance > 0){\n            bst.transfer(msg.sender, bstBalance);\n        }\n\n        uint256 ethBalance = address(this).balance;\n        if(ethBalance > 0){\n            msg.sender.transfer(ethBalance);\n        }\n    }\n\n    /**\n     * @dev Selects a random winner and transfer the funds.\n     * This function could fail when the selected wallet is a duplicate winner\n     * and need to try again to select an another random investor.\n     * When we have N winners, the admin need to call this function N times. This is \n     * not an efficient method but since we have just a few winners it will work fine.\n     */\n    function adminAddWinner() isPoolFinished isAdmin public{\n        assert(paidWinners < winnerCount);\n        uint256 winnerIndex = random();\n        assert(!winners[investorsList[winnerIndex]]);\n\n        winners[investorsList[winnerIndex]] = true;\n        winnerList[paidWinners++] = investorsList[winnerIndex];\n\n        if(bonusInETH){\n            investorsList[winnerIndex].transfer(bonus);\n        }else{\n            StandardToken(BSTContract).transfer(investorsList[winnerIndex], bonus);\n        }\n    }\n\n    /**\n     * @dev Selects a random winner among all investors\n     */\n    function random() public view returns (uint256) {\n        return uint256(keccak256(block.timestamp, block.difficulty))%size;\n    }\n\n    /**\n     * @dev Returns the details of an investor by its index.\n     * UI can use this function to show the info.\n     * @param index Index of the investor in investorsList\n     */\n    function getWalletInfoByIndex(uint256 index) \n            public constant returns (address _addr, bool _isWinner){\n        _addr = investorsList[index];\n        _isWinner = winners[_addr];\n    }\n\n    /**\n     * @dev Returns the details of an investor\n     * UI can use this function to show the info.\n     * @param addr Address of the investor\n     */\n    function getWalletInfo(address addr) \n            public constant returns (bool _isWinner){\n        _isWinner = winners[addr];\n    }\n}\n",
  "sourcePath": "contracts/BoostoPool.sol",
  "compiler": {
    "name": "solc",
    "version": "0.4.24+commit.e67f0147.Emscripten.clang"
  },
  "schemaVersion": "2.0.1",
  "updatedAt": "2018-09-22T01:13:50.387Z"
}