{
  "contractName": "BoostoToken",
  "abi": [
    {
      "constant": true,
      "inputs": [],
      "name": "name",
      "outputs": [
        {
          "name": "",
          "type": "string"
        }
      ],
      "payable": false,
      "stateMutability": "view",
      "type": "function"
    },
    {
      "constant": false,
      "inputs": [
        {
          "name": "_spender",
          "type": "address"
        },
        {
          "name": "_value",
          "type": "uint256"
        }
      ],
      "name": "approve",
      "outputs": [
        {
          "name": "",
          "type": "bool"
        }
      ],
      "payable": false,
      "stateMutability": "nonpayable",
      "type": "function"
    },
    {
      "constant": true,
      "inputs": [],
      "name": "testNumber",
      "outputs": [
        {
          "name": "",
          "type": "uint256"
        }
      ],
      "payable": false,
      "stateMutability": "view",
      "type": "function"
    },
    {
      "constant": true,
      "inputs": [],
      "name": "totalSupply",
      "outputs": [
        {
          "name": "",
          "type": "uint256"
        }
      ],
      "payable": false,
      "stateMutability": "view",
      "type": "function"
    },
    {
      "constant": true,
      "inputs": [],
      "name": "fundsWallet",
      "outputs": [
        {
          "name": "",
          "type": "address"
        }
      ],
      "payable": false,
      "stateMutability": "view",
      "type": "function"
    },
    {
      "constant": true,
      "inputs": [],
      "name": "maxCap",
      "outputs": [
        {
          "name": "",
          "type": "uint256"
        }
      ],
      "payable": false,
      "stateMutability": "view",
      "type": "function"
    },
    {
      "constant": false,
      "inputs": [
        {
          "name": "_from",
          "type": "address"
        },
        {
          "name": "_to",
          "type": "address"
        },
        {
          "name": "_value",
          "type": "uint256"
        }
      ],
      "name": "transferFrom",
      "outputs": [
        {
          "name": "",
          "type": "bool"
        }
      ],
      "payable": false,
      "stateMutability": "nonpayable",
      "type": "function"
    },
    {
      "constant": true,
      "inputs": [],
      "name": "decimals",
      "outputs": [
        {
          "name": "",
          "type": "uint8"
        }
      ],
      "payable": false,
      "stateMutability": "view",
      "type": "function"
    },
    {
      "constant": true,
      "inputs": [
        {
          "name": "",
          "type": "address"
        }
      ],
      "name": "whiteList",
      "outputs": [
        {
          "name": "",
          "type": "bool"
        }
      ],
      "payable": false,
      "stateMutability": "view",
      "type": "function"
    },
    {
      "constant": false,
      "inputs": [
        {
          "name": "_spender",
          "type": "address"
        },
        {
          "name": "_subtractedValue",
          "type": "uint256"
        }
      ],
      "name": "decreaseApproval",
      "outputs": [
        {
          "name": "",
          "type": "bool"
        }
      ],
      "payable": false,
      "stateMutability": "nonpayable",
      "type": "function"
    },
    {
      "constant": true,
      "inputs": [
        {
          "name": "_owner",
          "type": "address"
        }
      ],
      "name": "balanceOf",
      "outputs": [
        {
          "name": "balance",
          "type": "uint256"
        }
      ],
      "payable": false,
      "stateMutability": "view",
      "type": "function"
    },
    {
      "constant": true,
      "inputs": [],
      "name": "symbol",
      "outputs": [
        {
          "name": "",
          "type": "string"
        }
      ],
      "payable": false,
      "stateMutability": "view",
      "type": "function"
    },
    {
      "constant": true,
      "inputs": [],
      "name": "durationSeconds",
      "outputs": [
        {
          "name": "",
          "type": "uint256"
        }
      ],
      "payable": false,
      "stateMutability": "view",
      "type": "function"
    },
    {
      "constant": true,
      "inputs": [],
      "name": "minAmount",
      "outputs": [
        {
          "name": "",
          "type": "uint256"
        }
      ],
      "payable": false,
      "stateMutability": "view",
      "type": "function"
    },
    {
      "constant": false,
      "inputs": [
        {
          "name": "_to",
          "type": "address"
        },
        {
          "name": "_value",
          "type": "uint256"
        }
      ],
      "name": "transfer",
      "outputs": [
        {
          "name": "",
          "type": "bool"
        }
      ],
      "payable": false,
      "stateMutability": "nonpayable",
      "type": "function"
    },
    {
      "constant": true,
      "inputs": [
        {
          "name": "",
          "type": "uint256"
        }
      ],
      "name": "weeklyRewards",
      "outputs": [
        {
          "name": "",
          "type": "uint256"
        }
      ],
      "payable": false,
      "stateMutability": "view",
      "type": "function"
    },
    {
      "constant": true,
      "inputs": [],
      "name": "coinsPerETH",
      "outputs": [
        {
          "name": "",
          "type": "uint256"
        }
      ],
      "payable": false,
      "stateMutability": "view",
      "type": "function"
    },
    {
      "constant": true,
      "inputs": [],
      "name": "totalRaised",
      "outputs": [
        {
          "name": "",
          "type": "uint256"
        }
      ],
      "payable": false,
      "stateMutability": "view",
      "type": "function"
    },
    {
      "constant": false,
      "inputs": [
        {
          "name": "_spender",
          "type": "address"
        },
        {
          "name": "_addedValue",
          "type": "uint256"
        }
      ],
      "name": "increaseApproval",
      "outputs": [
        {
          "name": "",
          "type": "bool"
        }
      ],
      "payable": false,
      "stateMutability": "nonpayable",
      "type": "function"
    },
    {
      "constant": true,
      "inputs": [
        {
          "name": "_owner",
          "type": "address"
        },
        {
          "name": "_spender",
          "type": "address"
        }
      ],
      "name": "allowance",
      "outputs": [
        {
          "name": "",
          "type": "uint256"
        }
      ],
      "payable": false,
      "stateMutability": "view",
      "type": "function"
    },
    {
      "constant": true,
      "inputs": [],
      "name": "startTimestamp",
      "outputs": [
        {
          "name": "",
          "type": "uint256"
        }
      ],
      "payable": false,
      "stateMutability": "view",
      "type": "function"
    },
    {
      "inputs": [],
      "payable": false,
      "stateMutability": "nonpayable",
      "type": "constructor"
    },
    {
      "payable": true,
      "stateMutability": "payable",
      "type": "fallback"
    },
    {
      "anonymous": false,
      "inputs": [
        {
          "indexed": true,
          "name": "owner",
          "type": "address"
        },
        {
          "indexed": true,
          "name": "spender",
          "type": "address"
        },
        {
          "indexed": false,
          "name": "value",
          "type": "uint256"
        }
      ],
      "name": "Approval",
      "type": "event"
    },
    {
      "anonymous": false,
      "inputs": [
        {
          "indexed": true,
          "name": "from",
          "type": "address"
        },
        {
          "indexed": true,
          "name": "to",
          "type": "address"
        },
        {
          "indexed": false,
          "name": "value",
          "type": "uint256"
        }
      ],
      "name": "Transfer",
      "type": "event"
    },
    {
      "constant": true,
      "inputs": [
        {
          "name": "weiAmount",
          "type": "uint256"
        }
      ],
      "name": "calculateTokenAmount",
      "outputs": [
        {
          "name": "",
          "type": "uint256"
        }
      ],
      "payable": false,
      "stateMutability": "view",
      "type": "function"
    },
    {
      "constant": false,
      "inputs": [
        {
          "name": "_address",
          "type": "address"
        },
        {
          "name": "_value",
          "type": "bool"
        }
      ],
      "name": "adminUpdateWhiteList",
      "outputs": [],
      "payable": false,
      "stateMutability": "nonpayable",
      "type": "function"
    },
    {
      "constant": true,
      "inputs": [],
      "name": "testPrint",
      "outputs": [
        {
          "name": "",
          "type": "string"
        }
      ],
      "payable": false,
      "stateMutability": "pure",
      "type": "function"
    },
    {
      "constant": false,
      "inputs": [
        {
          "name": "_startTimestamp",
          "type": "uint256"
        },
        {
          "name": "_durationSeconds",
          "type": "uint256"
        },
        {
          "name": "_coinsPerETH",
          "type": "uint256"
        },
        {
          "name": "_maxCap",
          "type": "uint256"
        },
        {
          "name": "_minAmount",
          "type": "uint256"
        },
        {
          "name": "_week1Rewards",
          "type": "uint256"
        },
        {
          "name": "_week2Rewards",
          "type": "uint256"
        },
        {
          "name": "_week3Rewards",
          "type": "uint256"
        },
        {
          "name": "_week4Rewards",
          "type": "uint256"
        },
        {
          "name": "_isPublic",
          "type": "bool"
        }
      ],
      "name": "adminAddICO",
      "outputs": [],
      "payable": false,
      "stateMutability": "nonpayable",
      "type": "function"
    },
    {
      "constant": true,
      "inputs": [],
      "name": "isIcoInProgress",
      "outputs": [
        {
          "name": "",
          "type": "bool"
        }
      ],
      "payable": false,
      "stateMutability": "view",
      "type": "function"
    }
  ],
  "bytecode": "0x60606040526040805190810160405280600681526020017f426f6f73746f000000000000000000000000000000000000000000000000000081525060039080519060200190620000519291906200024c565b506040805190810160405280600381526020017f4253540000000000000000000000000000000000000000000000000000000000815250600490805190602001906200009f9291906200024c565b506012600560006101000a81548160ff021916908360ff160217905550600560009054906101000a900460ff1660ff16600a0a633b9aca0002600655620f1206600b5567016345785d8a0000600c556103e8600d556000600f60006101000a81548160ff02191690831515021790555034156200011b57600080fd5b33601160006101000a81548173ffffffffffffffffffffffffffffffffffffffff021916908373ffffffffffffffffffffffffffffffffffffffff160217905550426008819055506000600981905550600654600080601160009054906101000a900473ffffffffffffffffffffffffffffffffffffffff1673ffffffffffffffffffffffffffffffffffffffff1673ffffffffffffffffffffffffffffffffffffffff16815260200190815260200160002081905550601160009054906101000a900473ffffffffffffffffffffffffffffffffffffffff1673ffffffffffffffffffffffffffffffffffffffff1660007fddf252ad1be2c89b69c2b068fc378daa952ba7f163c4a11628f55a4df523b3ef6006546040518082815260200191505060405180910390a3620002fb565b828054600181600116156101000203166002900490600052602060002090601f016020900481019282601f106200028f57805160ff1916838001178555620002c0565b82800160010185558215620002c0579182015b82811115620002bf578251825591602001919060010190620002a2565b5b509050620002cf9190620002d3565b5090565b620002f891905b80821115620002f4576000816000905550600101620002da565b5090565b90565b611dea806200030b6000396000f300606060405260043610610154576000357c0100000000000000000000000000000000000000000000000000000000900463ffffffff16806306fdde0314610465578063095ea7b3146104f35780630d1972f31461054d57806318160ddd146105765780632194f3a21461059f57806323548b8b146105f457806323b872dd1461061d578063313ce56714610696578063372c12b1146106c557806344ba74d11461071657806357cdd0781461078c57806366188463146107b957806370a082311461081357806395d89b41146108605780639acba2af146108ee5780639b2cb5d814610917578063a0c4bc4b14610940578063a24bcf46146109ce578063a9059cbb14610a05578063af364c0514610a5f578063b274706414610a96578063bceef6a714610ada578063c5c4744c14610b03578063d73dd62314610b2c578063dd62ed3e14610b86578063e6fd48bc14610bf2575b600061015e610c1b565b151561016957600080fd5b600c54341015151561017a57600080fd5b600f60009054906101000a900460ff16806101de5750601060003373ffffffffffffffffffffffffffffffffffffffff1673ffffffffffffffffffffffffffffffffffffffff16815260200190815260200160002060009054906101000a900460ff165b15156101e957600080fd5b6101fe34600754610c6590919063ffffffff16565b60078190555061020d34610c83565b905061028281600080601160009054906101000a900473ffffffffffffffffffffffffffffffffffffffff1673ffffffffffffffffffffffffffffffffffffffff1673ffffffffffffffffffffffffffffffffffffffff16815260200190815260200160002054610d1b90919063ffffffff16565b600080601160009054906101000a900473ffffffffffffffffffffffffffffffffffffffff1673ffffffffffffffffffffffffffffffffffffffff1673ffffffffffffffffffffffffffffffffffffffff16815260200190815260200160002081905550610337816000803373ffffffffffffffffffffffffffffffffffffffff1673ffffffffffffffffffffffffffffffffffffffff16815260200190815260200160002054610c6590919063ffffffff16565b6000803373ffffffffffffffffffffffffffffffffffffffff1673ffffffffffffffffffffffffffffffffffffffff168152602001908152602001600020819055503373ffffffffffffffffffffffffffffffffffffffff16601160009054906101000a900473ffffffffffffffffffffffffffffffffffffffff1673ffffffffffffffffffffffffffffffffffffffff167fddf252ad1be2c89b69c2b068fc378daa952ba7f163c4a11628f55a4df523b3ef836040518082815260200191505060405180910390a3601160009054906101000a900473ffffffffffffffffffffffffffffffffffffffff1673ffffffffffffffffffffffffffffffffffffffff166108fc349081150290604051600060405180830381858888f19350505050151561046257600080fd5b50005b341561047057600080fd5b610478610d34565b6040518080602001828103825283818151815260200191508051906020019080838360005b838110156104b857808201518184015260208101905061049d565b50505050905090810190601f1680156104e55780820380516001836020036101000a031916815260200191505b509250505060405180910390f35b34156104fe57600080fd5b610533600480803573ffffffffffffffffffffffffffffffffffffffff16906020019091908035906020019091905050610dd2565b604051808215151515815260200191505060405180910390f35b341561055857600080fd5b610560610ec4565b6040518082815260200191505060405180910390f35b341561058157600080fd5b610589610eca565b6040518082815260200191505060405180910390f35b34156105aa57600080fd5b6105b2610ed0565b604051808273ffffffffffffffffffffffffffffffffffffffff1673ffffffffffffffffffffffffffffffffffffffff16815260200191505060405180910390f35b34156105ff57600080fd5b610607610ef6565b6040518082815260200191505060405180910390f35b341561062857600080fd5b61067c600480803573ffffffffffffffffffffffffffffffffffffffff1690602001909190803573ffffffffffffffffffffffffffffffffffffffff16906020019091908035906020019091905050610efc565b604051808215151515815260200191505060405180910390f35b34156106a157600080fd5b6106a96112b6565b604051808260ff1660ff16815260200191505060405180910390f35b34156106d057600080fd5b6106fc600480803573ffffffffffffffffffffffffffffffffffffffff169060200190919050506112c9565b604051808215151515815260200191505060405180910390f35b341561072157600080fd5b61078a600480803590602001909190803590602001909190803590602001909190803590602001909190803590602001909190803590602001909190803590602001909190803590602001909190803590602001909190803515159060200190919050506112e9565b005b341561079757600080fd5b61079f610c1b565b604051808215151515815260200191505060405180910390f35b34156107c457600080fd5b6107f9600480803573ffffffffffffffffffffffffffffffffffffffff1690602001909190803590602001909190505061140b565b604051808215151515815260200191505060405180910390f35b341561081e57600080fd5b61084a600480803573ffffffffffffffffffffffffffffffffffffffff1690602001909190505061169c565b6040518082815260200191505060405180910390f35b341561086b57600080fd5b6108736116e4565b6040518080602001828103825283818151815260200191508051906020019080838360005b838110156108b3578082015181840152602081019050610898565b50505050905090810190601f1680156108e05780820380516001836020036101000a031916815260200191505b509250505060405180910390f35b34156108f957600080fd5b610901611782565b6040518082815260200191505060405180910390f35b341561092257600080fd5b61092a611788565b6040518082815260200191505060405180910390f35b341561094b57600080fd5b61095361178e565b6040518080602001828103825283818151815260200191508051906020019080838360005b83811015610993578082015181840152602081019050610978565b50505050905090810190601f1680156109c05780820380516001836020036101000a031916815260200191505b509250505060405180910390f35b34156109d957600080fd5b6109ef6004808035906020019091905050610c83565b6040518082815260200191505060405180910390f35b3415610a1057600080fd5b610a45600480803573ffffffffffffffffffffffffffffffffffffffff169060200190919080359060200190919050506117d1565b604051808215151515815260200191505060405180910390f35b3415610a6a57600080fd5b610a8060048080359060200190919050506119f0565b6040518082815260200191505060405180910390f35b3415610aa157600080fd5b610ad8600480803573ffffffffffffffffffffffffffffffffffffffff169060200190919080351515906020019091905050611a08565b005b3415610ae557600080fd5b610aed611abf565b6040518082815260200191505060405180910390f35b3415610b0e57600080fd5b610b16611ac5565b6040518082815260200191505060405180910390f35b3415610b3757600080fd5b610b6c600480803573ffffffffffffffffffffffffffffffffffffffff16906020019091908035906020019091905050611acb565b604051808215151515815260200191505060405180910390f35b3415610b9157600080fd5b610bdc600480803573ffffffffffffffffffffffffffffffffffffffff1690602001909190803573ffffffffffffffffffffffffffffffffffffffff16906020019091905050611cc7565b6040518082815260200191505060405180910390f35b3415610bfd57600080fd5b610c05611d4e565b6040518082815260200191505060405180910390f35b6000600854421015610c305760009050610c62565b60095460085401421115610c475760009050610c62565b600a54600754101515610c5d5760009050610c62565b600190505b90565b6000808284019050838110151515610c7957fe5b8091505092915050565b6000806000610c9d600d5485611d5490919063ffffffff16565b9150600190505b600481111515610d105762093a8081026008540142111515610d0357610cfc6064610cee600e60008581526020019081526020016000205460640185611d5490919063ffffffff16565b611d8f90919063ffffffff16565b9250610d14565b8080600101915050610ca4565b8192505b5050919050565b6000828211151515610d2957fe5b818303905092915050565b60038054600181600116156101000203166002900480601f016020809104026020016040519081016040528092919081815260200182805460018160011615610100020316600290048015610dca5780601f10610d9f57610100808354040283529160200191610dca565b820191906000526020600020905b815481529060010190602001808311610dad57829003601f168201915b505050505081565b600081600260003373ffffffffffffffffffffffffffffffffffffffff1673ffffffffffffffffffffffffffffffffffffffff16815260200190815260200160002060008573ffffffffffffffffffffffffffffffffffffffff1673ffffffffffffffffffffffffffffffffffffffff168152602001908152602001600020819055508273ffffffffffffffffffffffffffffffffffffffff163373ffffffffffffffffffffffffffffffffffffffff167f8c5be1e5ebec7d5bd14f71427d1e84f3dd0314c0f7b2291e5b200ac8c7c3b925846040518082815260200191505060405180910390a36001905092915050565b600b5481565b60065481565b601160009054906101000a900473ffffffffffffffffffffffffffffffffffffffff1681565b600a5481565b60008073ffffffffffffffffffffffffffffffffffffffff168373ffffffffffffffffffffffffffffffffffffffff1614151515610f3957600080fd5b6000808573ffffffffffffffffffffffffffffffffffffffff1673ffffffffffffffffffffffffffffffffffffffff168152602001908152602001600020548211151515610f8657600080fd5b600260008573ffffffffffffffffffffffffffffffffffffffff1673ffffffffffffffffffffffffffffffffffffffff16815260200190815260200160002060003373ffffffffffffffffffffffffffffffffffffffff1673ffffffffffffffffffffffffffffffffffffffff16815260200190815260200160002054821115151561101157600080fd5b611062826000808773ffffffffffffffffffffffffffffffffffffffff1673ffffffffffffffffffffffffffffffffffffffff16815260200190815260200160002054610d1b90919063ffffffff16565b6000808673ffffffffffffffffffffffffffffffffffffffff1673ffffffffffffffffffffffffffffffffffffffff168152602001908152602001600020819055506110f5826000808673ffffffffffffffffffffffffffffffffffffffff1673ffffffffffffffffffffffffffffffffffffffff16815260200190815260200160002054610c6590919063ffffffff16565b6000808573ffffffffffffffffffffffffffffffffffffffff1673ffffffffffffffffffffffffffffffffffffffff168152602001908152602001600020819055506111c682600260008773ffffffffffffffffffffffffffffffffffffffff1673ffffffffffffffffffffffffffffffffffffffff16815260200190815260200160002060003373ffffffffffffffffffffffffffffffffffffffff1673ffffffffffffffffffffffffffffffffffffffff16815260200190815260200160002054610d1b90919063ffffffff16565b600260008673ffffffffffffffffffffffffffffffffffffffff1673ffffffffffffffffffffffffffffffffffffffff16815260200190815260200160002060003373ffffffffffffffffffffffffffffffffffffffff1673ffffffffffffffffffffffffffffffffffffffff168152602001908152602001600020819055508273ffffffffffffffffffffffffffffffffffffffff168473ffffffffffffffffffffffffffffffffffffffff167fddf252ad1be2c89b69c2b068fc378daa952ba7f163c4a11628f55a4df523b3ef846040518082815260200191505060405180910390a3600190509392505050565b600560009054906101000a900460ff1681565b60106020528060005260406000206000915054906101000a900460ff1681565b601160009054906101000a900473ffffffffffffffffffffffffffffffffffffffff1673ffffffffffffffffffffffffffffffffffffffff163373ffffffffffffffffffffffffffffffffffffffff1614151561134557600080fd5b61134d610c1b565b15151561135657fe5b896008819055508860098190555087600d8190555086600a8190555085600c8190555084600e6000600181526020019081526020016000208190555083600e6000600281526020019081526020016000208190555082600e6000600381526020019081526020016000208190555081600e6000600481526020019081526020016000208190555080600f60006101000a81548160ff021916908315150217905550600060078190555050505050505050505050565b600080600260003373ffffffffffffffffffffffffffffffffffffffff1673ffffffffffffffffffffffffffffffffffffffff16815260200190815260200160002060008573ffffffffffffffffffffffffffffffffffffffff1673ffffffffffffffffffffffffffffffffffffffff1681526020019081526020016000205490508083111561151c576000600260003373ffffffffffffffffffffffffffffffffffffffff1673ffffffffffffffffffffffffffffffffffffffff16815260200190815260200160002060008673ffffffffffffffffffffffffffffffffffffffff1673ffffffffffffffffffffffffffffffffffffffff168152602001908152602001600020819055506115b0565b61152f8382610d1b90919063ffffffff16565b600260003373ffffffffffffffffffffffffffffffffffffffff1673ffffffffffffffffffffffffffffffffffffffff16815260200190815260200160002060008673ffffffffffffffffffffffffffffffffffffffff1673ffffffffffffffffffffffffffffffffffffffff168152602001908152602001600020819055505b8373ffffffffffffffffffffffffffffffffffffffff163373ffffffffffffffffffffffffffffffffffffffff167f8c5be1e5ebec7d5bd14f71427d1e84f3dd0314c0f7b2291e5b200ac8c7c3b925600260003373ffffffffffffffffffffffffffffffffffffffff1673ffffffffffffffffffffffffffffffffffffffff16815260200190815260200160002060008873ffffffffffffffffffffffffffffffffffffffff1673ffffffffffffffffffffffffffffffffffffffff168152602001908152602001600020546040518082815260200191505060405180910390a3600191505092915050565b60008060008373ffffffffffffffffffffffffffffffffffffffff1673ffffffffffffffffffffffffffffffffffffffff168152602001908152602001600020549050919050565b60048054600181600116156101000203166002900480601f01602080910402602001604051908101604052809291908181526020018280546001816001161561010002031660029004801561177a5780601f1061174f5761010080835404028352916020019161177a565b820191906000526020600020905b81548152906001019060200180831161175d57829003601f168201915b505050505081565b60095481565b600c5481565b611796611daa565b6040805190810160405280600b81526020017f68656c6c6f2c776f726c64000000000000000000000000000000000000000000815250905090565b60008073ffffffffffffffffffffffffffffffffffffffff168373ffffffffffffffffffffffffffffffffffffffff161415151561180e57600080fd5b6000803373ffffffffffffffffffffffffffffffffffffffff1673ffffffffffffffffffffffffffffffffffffffff16815260200190815260200160002054821115151561185b57600080fd5b6118ac826000803373ffffffffffffffffffffffffffffffffffffffff1673ffffffffffffffffffffffffffffffffffffffff16815260200190815260200160002054610d1b90919063ffffffff16565b6000803373ffffffffffffffffffffffffffffffffffffffff1673ffffffffffffffffffffffffffffffffffffffff1681526020019081526020016000208190555061193f826000808673ffffffffffffffffffffffffffffffffffffffff1673ffffffffffffffffffffffffffffffffffffffff16815260200190815260200160002054610c6590919063ffffffff16565b6000808573ffffffffffffffffffffffffffffffffffffffff1673ffffffffffffffffffffffffffffffffffffffff168152602001908152602001600020819055508273ffffffffffffffffffffffffffffffffffffffff163373ffffffffffffffffffffffffffffffffffffffff167fddf252ad1be2c89b69c2b068fc378daa952ba7f163c4a11628f55a4df523b3ef846040518082815260200191505060405180910390a36001905092915050565b600e6020528060005260406000206000915090505481565b601160009054906101000a900473ffffffffffffffffffffffffffffffffffffffff1673ffffffffffffffffffffffffffffffffffffffff163373ffffffffffffffffffffffffffffffffffffffff16141515611a6457600080fd5b80601060008473ffffffffffffffffffffffffffffffffffffffff1673ffffffffffffffffffffffffffffffffffffffff16815260200190815260200160002060006101000a81548160ff0219169083151502179055505050565b600d5481565b60075481565b6000611b5c82600260003373ffffffffffffffffffffffffffffffffffffffff1673ffffffffffffffffffffffffffffffffffffffff16815260200190815260200160002060008673ffffffffffffffffffffffffffffffffffffffff1673ffffffffffffffffffffffffffffffffffffffff16815260200190815260200160002054610c6590919063ffffffff16565b600260003373ffffffffffffffffffffffffffffffffffffffff1673ffffffffffffffffffffffffffffffffffffffff16815260200190815260200160002060008573ffffffffffffffffffffffffffffffffffffffff1673ffffffffffffffffffffffffffffffffffffffff168152602001908152602001600020819055508273ffffffffffffffffffffffffffffffffffffffff163373ffffffffffffffffffffffffffffffffffffffff167f8c5be1e5ebec7d5bd14f71427d1e84f3dd0314c0f7b2291e5b200ac8c7c3b925600260003373ffffffffffffffffffffffffffffffffffffffff1673ffffffffffffffffffffffffffffffffffffffff16815260200190815260200160002060008773ffffffffffffffffffffffffffffffffffffffff1673ffffffffffffffffffffffffffffffffffffffff168152602001908152602001600020546040518082815260200191505060405180910390a36001905092915050565b6000600260008473ffffffffffffffffffffffffffffffffffffffff1673ffffffffffffffffffffffffffffffffffffffff16815260200190815260200160002060008373ffffffffffffffffffffffffffffffffffffffff1673ffffffffffffffffffffffffffffffffffffffff16815260200190815260200160002054905092915050565b60085481565b6000806000841415611d695760009150611d88565b8284029050828482811515611d7a57fe5b04141515611d8457fe5b8091505b5092915050565b6000808284811515611d9d57fe5b0490508091505092915050565b6020604051908101604052806000815250905600a165627a7a72305820b85cd02ffd288d7cff2a3a397e19f69d7528bcc74440f5a7e045ee3b375e357b0029",
  "source": "pragma solidity ^0.4.19;\n\nimport 'zeppelin-solidity/contracts/token/ERC20/StandardToken.sol';\n\ncontract BoostoToken is StandardToken {\n    using SafeMath for uint256;\n\n    string public name = \"Boosto\";\n    string public symbol = \"BST\";\n    uint8 public decimals = 18;\n\n    // 1B total supply\n    uint256 public totalSupply = 1000000000 * (uint256(10) ** decimals);\n    \n    uint256 public totalRaised; // total ether raised (in wei)\n\n    uint256 public startTimestamp; // timestamp after which ICO will start\n    \n    // 1 month = 1 * 30 * 24 * 60 * 60\n    uint256 public durationSeconds;\n\n    // the ICO ether max cap (in wei)\n    uint256 public maxCap;\n\n    uint256 public testNumber = 987654;\n     // Minimum Transaction Amount(0.1 ETH)\n    uint256 public minAmount = 0.1 ether;\n\n    // 1 ETH = X BST\n    uint256 public coinsPerETH = 1000;\n\n    /**\n     * weeklyRewards[week number] = percent\n     * for example weeklyRewards[1] = 20 -- 20% more coins for first week after ICO start\n     */\n    mapping(uint => uint) public weeklyRewards;\n\n    /**\n     * if true, everyone can participate in ICOs.\n     * otherwise just whitelisted wallets can participate\n     */\n    bool isPublic = false;\n\n    /**\n     * mapping to save whitelisted users\n     */\n    mapping(address => bool) public whiteList;\n    \n    /**\n     * Address which will receive raised funds \n     * and owns the total supply of tokens\n     */\n    address public fundsWallet;\n\n    /**\n     * @dev Constructor\n     */\n    function BoostoToken() public{\n        fundsWallet = msg.sender;\n\n        startTimestamp = now;\n\n        // ICO is not active by default. Admin can set it later\n        durationSeconds = 0;\n\n        //initially assign all tokens to the fundsWallet\n        balances[fundsWallet] = totalSupply;\n        Transfer(0x0, fundsWallet, totalSupply);\n    }\n\n    /**\n     * @dev Checks if an ICO is open\n     */\n    modifier isIcoOpen() {\n        require(isIcoInProgress());\n        _;\n    }\n\n    /**\n     * @dev Checks if the investment amount is greater than min amount\n     */\n    modifier checkMin(){\n        require(msg.value >= minAmount);\n        _;\n    }\n\n    /**\n     * @dev Checks if msg.sender can participate in the ICO\n     */\n    modifier isWhiteListed(){\n        require(isPublic || whiteList[msg.sender]);\n        _;\n    }\n\n    /**\n     * @dev Checks if msg.sender is admin\n     */\n\n    modifier isOwner(){\n        require(msg.sender == fundsWallet);\n        _;\n    }\n\n    /**\n     * @dev Payable fallback. This function will be called\n     * when investors send ETH to buy BST\n     */\n    function() public isIcoOpen checkMin isWhiteListed payable{\n        totalRaised = totalRaised.add(msg.value);\n\n        uint256 tokenAmount = calculateTokenAmount(msg.value);\n        balances[fundsWallet] = balances[fundsWallet].sub(tokenAmount);\n        balances[msg.sender] = balances[msg.sender].add(tokenAmount);\n\n        Transfer(fundsWallet, msg.sender, tokenAmount);\n\n        // immediately transfer ether to fundsWallet\n        fundsWallet.transfer(msg.value);\n    }\n\n    /**\n     * @dev Calculates token amount for investors based on weekly rewards\n     * and msg.value\n     * @param weiAmount ETH amount in wei amount\n     * @return Total BST amount\n     */\n    function calculateTokenAmount(uint256 weiAmount) public constant returns(uint256) {\n        uint256 tokenAmount = weiAmount.mul(coinsPerETH);\n        // setting rewards is possible only for 4 weeks\n        for (uint i = 1; i <= 4; i++) {\n            if (now <= startTimestamp + (i * 7 days)) {\n                return tokenAmount.mul(100+weeklyRewards[i]).div(100);    \n            }\n        }\n        return tokenAmount;\n    }\n\n    /**\n     * @dev Update WhiteList for an address\n     * @param _address The address\n     * @param _value Boolean to represent the status\n     */\n    function adminUpdateWhiteList(address _address, bool _value) public isOwner{\n        whiteList[_address] = _value;\n    }\n    function testPrint() public pure returns(string)\n    {\n        return \"hello,world\";\n    }\n\n    /**\n     * @dev Allows admin to launch a new ICO\n     * @param _startTimestamp Start timestamp in epochs\n     * @param _durationSeconds ICO time in seconds(1 day=24*60*60)\n     * @param _coinsPerETH BST price in ETH(1 ETH = ? BST)\n     * @param _maxCap Max ETH capture in wei amount\n     * @param _minAmount Min ETH amount per user in wei amount\n     * @param _week1Rewards % of rewards for week 1\n     * @param _week2Rewards % of rewards for week 2\n     * @param _week3Rewards % of rewards for week 3\n     * @param _week4Rewards % of rewards for week 4\n     * @param _isPublic Boolean to represent that the ICO is public or not\n     */\n    function adminAddICO(uint256 _startTimestamp, uint256 _durationSeconds, \n        uint256 _coinsPerETH, uint256 _maxCap, uint256 _minAmount, uint _week1Rewards,\n        uint _week2Rewards, uint _week3Rewards, uint _week4Rewards, bool _isPublic) public isOwner{\n\n        // we can't add a new ICO when an ICO is already in progress\n        assert(!isIcoInProgress());\n\n        startTimestamp = _startTimestamp;\n        durationSeconds = _durationSeconds;\n        coinsPerETH = _coinsPerETH;\n        maxCap = _maxCap;\n        minAmount = _minAmount;\n\n        weeklyRewards[1] = _week1Rewards;\n        weeklyRewards[2] = _week2Rewards;\n        weeklyRewards[3] = _week3Rewards;\n        weeklyRewards[4] = _week4Rewards;\n\n        isPublic = _isPublic;\n        // reset totalRaised\n        totalRaised = 0;\n\n    }\n\n    /**\n     * @dev Return true if an ICO is already in progress;\n     * otherwise returns false\n     */\n    function isIcoInProgress() public constant returns(bool){\n        if(now < startTimestamp){\n            return false;\n        }\n        if(now > (startTimestamp + durationSeconds)){\n            return false;\n        }\n        if(totalRaised >= maxCap){\n            return false;\n        }\n        return true;\n    }\n}\n",
  "sourcePath": "/Users/arceus/Desktop/bi/ico/BOOSTOToken/contracts/BoostoToken.sol",
  "compiler": {
    "name": "solc",
    "version": "0.4.19+commit.c4cbbb05.Emscripten.clang"
  },
  "schemaVersion": "1.0.1",
  "updatedAt": "2018-03-30T02:39:47.773Z"
}