{
  "contractName": "BoostoReseller",
  "abi": [
    {
      "inputs": [
        {
          "name": "_minPerUser",
          "type": "uint256"
        },
        {
          "name": "_maxPerUser",
          "type": "uint256"
        },
        {
          "name": "_BSTPerETH",
          "type": "uint256"
        },
        {
          "name": "_fundsWallet",
          "type": "address"
        },
        {
          "name": "_operatorWallet",
          "type": "address"
        }
      ],
      "payable": false,
      "stateMutability": "nonpayable",
      "type": "constructor"
    },
    {
      "payable": true,
      "stateMutability": "payable",
      "type": "fallback"
    },
    {
      "constant": false,
      "inputs": [],
      "name": "adminWithdraw",
      "outputs": [],
      "payable": false,
      "stateMutability": "nonpayable",
      "type": "function"
    }
  ],
  "bytecode": "0x608060405260008054600160a060020a031916737e3d9bf69d24862a699343429843ed93a22beab217905534801561003657600080fd5b5060405160a0806104998339810160409081528151602083015191830151606084015160809094015160039290925560049290925560059190915560018054600160a060020a03938416600160a060020a031991821617909155600280549390921692169190911790556103ea806100af6000396000f3006080604052600436106100405763ffffffff7c0100000000000000000000000000000000000000000000000000000000600035041663f18d20be811461021b575b60035460009034101561005257600080fd5b60045434111561006157600080fd5b60008054604080517f70a082310000000000000000000000000000000000000000000000000000000081523060048201529051600160a060020a03909216929183916370a0823191602480830192602092919082900301818787803b1580156100c957600080fd5b505af11580156100dd573d6000803e3d6000fd5b505050506040513d60208110156100f357600080fd5b505160055490915061010c90349063ffffffff61023216565b811161011757600080fd5b600154604051600160a060020a03909116903480156108fc02916000818181858888f19350505050158015610150573d6000803e3d6000fd5b50600054600554600160a060020a039091169350839063a9059cbb90339061017f90349063ffffffff61023216565b6040518363ffffffff167c01000000000000000000000000000000000000000000000000000000000281526004018083600160a060020a0316600160a060020a0316815260200182815260200192505050602060405180830381600087803b1580156101ea57600080fd5b505af11580156101fe573d6000803e3d6000fd5b505050506040513d602081101561021457600080fd5b5050505050005b34801561022757600080fd5b50610230610268565b005b6000808315156102455760009150610261565b5082820282848281151561025557fe5b041461025d57fe5b8091505b5092915050565b6002546000908190600160a060020a0316331461028457600080fd5b60008054604080517f70a082310000000000000000000000000000000000000000000000000000000081523060048201529051600160a060020a03909216945084926370a08231926024808401936020939083900390910190829087803b1580156102ee57600080fd5b505af1158015610302573d6000803e3d6000fd5b505050506040513d602081101561031857600080fd5b5051905060008111156103ba57604080517fa9059cbb000000000000000000000000000000000000000000000000000000008152336004820152602481018390529051600160a060020a0384169163a9059cbb9160448083019260209291908290030181600087803b15801561038d57600080fd5b505af11580156103a1573d6000803e3d6000fd5b505050506040513d60208110156103b757600080fd5b50505b50505600a165627a7a7230582031ae12e057a6456bb96ef021072940251e14646ab972640bc998884c48ac41f20029",
  "source": "pragma solidity ^0.4.25;\n\nimport 'zeppelin-solidity/contracts/token/ERC20/StandardToken.sol';\n\n/**\n * @title Boosto Reseller\n */\ncontract BoostoReseller{\n    using SafeMath for uint256;\n\n    //address private BSTContract = 0xDf0041891BdA1f911C4243f328F7Cf61b37F965b;\n    address private BSTContract = 0x7e3D9BF69D24862A699343429843Ed93a22beab2;\n\n    address private fundsWallet;\n    address private operatorWallet;\n\n    uint256 minPerUser;\n    uint256 maxPerUser;\n\n    uint256 BSTPerETH;\n\n    /**\n     * @dev Creates a new pool\n     */\n    constructor(\n        uint256 _minPerUser,\n        uint256 _maxPerUser,\n        uint256 _BSTPerETH,\n        address _fundsWallet,\n        address _operatorWallet\n        ) public{\n        \n        minPerUser = _minPerUser;\n        maxPerUser = _maxPerUser;\n        BSTPerETH = _BSTPerETH;\n\n        fundsWallet = _fundsWallet;\n        operatorWallet = _operatorWallet;\n    }\n\n    /**\n     * @dev Checks if the pool is still open or not\n     */\n    modifier isPoolOpen() {\n        StandardToken bst = StandardToken(BSTContract);\n        uint256 bstBalance = bst.balanceOf(this);\n        require(bstBalance > msg.value.mul(BSTPerETH));\n        _;\n    }\n\n    /**\n     * @dev modifier for check msg.value\n     */\n    modifier checkInvestAmount(){\n        require(msg.value >= minPerUser);\n        require(msg.value <= maxPerUser);\n        _;\n    }\n\n\n    /**\n     * @dev check if the sender is admin\n     */\n    modifier isAdmin(){\n        require(msg.sender == operatorWallet);\n        _;\n    }\n\n    /**\n     * @dev fallback function\n     */\n    function() checkInvestAmount isPoolOpen payable public{\n        fundsWallet.transfer(msg.value);\n\n        StandardToken bst = StandardToken(BSTContract);\n        bst.transfer(msg.sender, msg.value.mul(BSTPerETH));\n    }\n\n    /**\n     * @dev Allows admin to withdraw remaining BSTs\n     */\n    function adminWithdraw() isAdmin public{\n        StandardToken bst = StandardToken(BSTContract);\n        uint256 bstBalance = bst.balanceOf(this);\n\n        if(bstBalance > 0){\n            bst.transfer(msg.sender, bstBalance);\n        }\n    }\n}\n",
  "sourcePath": "contracts/BoostoReseller.sol",
  "compiler": {
    "name": "solc",
    "version": "0.4.25+commit.59dbf8f1.Emscripten.clang"
  },
  "schemaVersion": "2.0.1",
  "updatedAt": "2018-11-26T20:08:38.488Z"
}