{
  "contractName": "BoostoToken",
  "abi": [
    {
      "constant": true,
      "inputs": [],
      "name": "name",
      "outputs": [
        {
          "name": "",
          "type": "string"
        }
      ],
      "payable": false,
      "stateMutability": "view",
      "type": "function"
    },
    {
      "constant": false,
      "inputs": [
        {
          "name": "_spender",
          "type": "address"
        },
        {
          "name": "_value",
          "type": "uint256"
        }
      ],
      "name": "approve",
      "outputs": [
        {
          "name": "",
          "type": "bool"
        }
      ],
      "payable": false,
      "stateMutability": "nonpayable",
      "type": "function"
    },
    {
      "constant": true,
      "inputs": [],
      "name": "totalSupply",
      "outputs": [
        {
          "name": "",
          "type": "uint256"
        }
      ],
      "payable": false,
      "stateMutability": "view",
      "type": "function"
    },
    {
      "constant": true,
      "inputs": [],
      "name": "fundsWallet",
      "outputs": [
        {
          "name": "",
          "type": "address"
        }
      ],
      "payable": false,
      "stateMutability": "view",
      "type": "function"
    },
    {
      "constant": true,
      "inputs": [],
      "name": "maxCap",
      "outputs": [
        {
          "name": "",
          "type": "uint256"
        }
      ],
      "payable": false,
      "stateMutability": "view",
      "type": "function"
    },
    {
      "constant": false,
      "inputs": [
        {
          "name": "_from",
          "type": "address"
        },
        {
          "name": "_to",
          "type": "address"
        },
        {
          "name": "_value",
          "type": "uint256"
        }
      ],
      "name": "transferFrom",
      "outputs": [
        {
          "name": "",
          "type": "bool"
        }
      ],
      "payable": false,
      "stateMutability": "nonpayable",
      "type": "function"
    },
    {
      "constant": true,
      "inputs": [],
      "name": "decimals",
      "outputs": [
        {
          "name": "",
          "type": "uint8"
        }
      ],
      "payable": false,
      "stateMutability": "view",
      "type": "function"
    },
    {
      "constant": true,
      "inputs": [
        {
          "name": "",
          "type": "address"
        }
      ],
      "name": "whiteList",
      "outputs": [
        {
          "name": "",
          "type": "bool"
        }
      ],
      "payable": false,
      "stateMutability": "view",
      "type": "function"
    },
    {
      "constant": false,
      "inputs": [
        {
          "name": "_spender",
          "type": "address"
        },
        {
          "name": "_subtractedValue",
          "type": "uint256"
        }
      ],
      "name": "decreaseApproval",
      "outputs": [
        {
          "name": "",
          "type": "bool"
        }
      ],
      "payable": false,
      "stateMutability": "nonpayable",
      "type": "function"
    },
    {
      "constant": true,
      "inputs": [
        {
          "name": "_owner",
          "type": "address"
        }
      ],
      "name": "balanceOf",
      "outputs": [
        {
          "name": "balance",
          "type": "uint256"
        }
      ],
      "payable": false,
      "stateMutability": "view",
      "type": "function"
    },
    {
      "constant": true,
      "inputs": [],
      "name": "symbol",
      "outputs": [
        {
          "name": "",
          "type": "string"
        }
      ],
      "payable": false,
      "stateMutability": "view",
      "type": "function"
    },
    {
      "constant": true,
      "inputs": [],
      "name": "durationSeconds",
      "outputs": [
        {
          "name": "",
          "type": "uint256"
        }
      ],
      "payable": false,
      "stateMutability": "view",
      "type": "function"
    },
    {
      "constant": true,
      "inputs": [],
      "name": "minAmount",
      "outputs": [
        {
          "name": "",
          "type": "uint256"
        }
      ],
      "payable": false,
      "stateMutability": "view",
      "type": "function"
    },
    {
      "constant": false,
      "inputs": [
        {
          "name": "_to",
          "type": "address"
        },
        {
          "name": "_value",
          "type": "uint256"
        }
      ],
      "name": "transfer",
      "outputs": [
        {
          "name": "",
          "type": "bool"
        }
      ],
      "payable": false,
      "stateMutability": "nonpayable",
      "type": "function"
    },
    {
      "constant": true,
      "inputs": [
        {
          "name": "",
          "type": "uint256"
        }
      ],
      "name": "weeklyRewards",
      "outputs": [
        {
          "name": "",
          "type": "uint256"
        }
      ],
      "payable": false,
      "stateMutability": "view",
      "type": "function"
    },
    {
      "constant": true,
      "inputs": [],
      "name": "coinsPerETH",
      "outputs": [
        {
          "name": "",
          "type": "uint256"
        }
      ],
      "payable": false,
      "stateMutability": "view",
      "type": "function"
    },
    {
      "constant": true,
      "inputs": [],
      "name": "totalRaised",
      "outputs": [
        {
          "name": "",
          "type": "uint256"
        }
      ],
      "payable": false,
      "stateMutability": "view",
      "type": "function"
    },
    {
      "constant": false,
      "inputs": [
        {
          "name": "_spender",
          "type": "address"
        },
        {
          "name": "_addedValue",
          "type": "uint256"
        }
      ],
      "name": "increaseApproval",
      "outputs": [
        {
          "name": "",
          "type": "bool"
        }
      ],
      "payable": false,
      "stateMutability": "nonpayable",
      "type": "function"
    },
    {
      "constant": true,
      "inputs": [
        {
          "name": "_owner",
          "type": "address"
        },
        {
          "name": "_spender",
          "type": "address"
        }
      ],
      "name": "allowance",
      "outputs": [
        {
          "name": "",
          "type": "uint256"
        }
      ],
      "payable": false,
      "stateMutability": "view",
      "type": "function"
    },
    {
      "constant": true,
      "inputs": [],
      "name": "startTimestamp",
      "outputs": [
        {
          "name": "",
          "type": "uint256"
        }
      ],
      "payable": false,
      "stateMutability": "view",
      "type": "function"
    },
    {
      "inputs": [],
      "payable": false,
      "stateMutability": "nonpayable",
      "type": "constructor"
    },
    {
      "payable": true,
      "stateMutability": "payable",
      "type": "fallback"
    },
    {
      "anonymous": false,
      "inputs": [
        {
          "indexed": true,
          "name": "owner",
          "type": "address"
        },
        {
          "indexed": true,
          "name": "spender",
          "type": "address"
        },
        {
          "indexed": false,
          "name": "value",
          "type": "uint256"
        }
      ],
      "name": "Approval",
      "type": "event"
    },
    {
      "anonymous": false,
      "inputs": [
        {
          "indexed": true,
          "name": "from",
          "type": "address"
        },
        {
          "indexed": true,
          "name": "to",
          "type": "address"
        },
        {
          "indexed": false,
          "name": "value",
          "type": "uint256"
        }
      ],
      "name": "Transfer",
      "type": "event"
    },
    {
      "constant": true,
      "inputs": [
        {
          "name": "weiAmount",
          "type": "uint256"
        }
      ],
      "name": "calculateTokenAmount",
      "outputs": [
        {
          "name": "",
          "type": "uint256"
        }
      ],
      "payable": false,
      "stateMutability": "view",
      "type": "function"
    },
    {
      "constant": false,
      "inputs": [
        {
          "name": "_address",
          "type": "address"
        },
        {
          "name": "_value",
          "type": "bool"
        }
      ],
      "name": "adminUpdateWhiteList",
      "outputs": [],
      "payable": false,
      "stateMutability": "nonpayable",
      "type": "function"
    },
    {
      "constant": false,
      "inputs": [
        {
          "name": "_startTimestamp",
          "type": "uint256"
        },
        {
          "name": "_durationSeconds",
          "type": "uint256"
        },
        {
          "name": "_coinsPerETH",
          "type": "uint256"
        },
        {
          "name": "_maxCap",
          "type": "uint256"
        },
        {
          "name": "_minAmount",
          "type": "uint256"
        },
        {
          "name": "_week1Rewards",
          "type": "uint256"
        },
        {
          "name": "_week2Rewards",
          "type": "uint256"
        },
        {
          "name": "_week3Rewards",
          "type": "uint256"
        },
        {
          "name": "_week4Rewards",
          "type": "uint256"
        },
        {
          "name": "_isPublic",
          "type": "bool"
        }
      ],
      "name": "adminAddICO",
      "outputs": [],
      "payable": false,
      "stateMutability": "nonpayable",
      "type": "function"
    },
    {
      "constant": true,
      "inputs": [],
      "name": "isIcoInProgress",
      "outputs": [
        {
          "name": "",
          "type": "bool"
        }
      ],
      "payable": false,
      "stateMutability": "view",
      "type": "function"
    }
  ],
  "bytecode": "0x60606040526040805190810160405280600681526020017f426f6f73746f0000000000000000000000000000000000000000000000000000815250600390805190602001906200005192919062000245565b506040805190810160405280600381526020017f4253540000000000000000000000000000000000000000000000000000000000815250600490805190602001906200009f92919062000245565b506012600560006101000a81548160ff021916908360ff160217905550600560009054906101000a900460ff1660ff16600a0a633b9aca000260065567016345785d8a0000600b556103e8600c556000600e60006101000a81548160ff02191690831515021790555034156200011457600080fd5b33601060006101000a81548173ffffffffffffffffffffffffffffffffffffffff021916908373ffffffffffffffffffffffffffffffffffffffff160217905550426008819055506000600981905550600654600080601060009054906101000a900473ffffffffffffffffffffffffffffffffffffffff1673ffffffffffffffffffffffffffffffffffffffff1673ffffffffffffffffffffffffffffffffffffffff16815260200190815260200160002081905550601060009054906101000a900473ffffffffffffffffffffffffffffffffffffffff1673ffffffffffffffffffffffffffffffffffffffff1660007fddf252ad1be2c89b69c2b068fc378daa952ba7f163c4a11628f55a4df523b3ef6006546040518082815260200191505060405180910390a3620002f4565b828054600181600116156101000203166002900490600052602060002090601f016020900481019282601f106200028857805160ff1916838001178555620002b9565b82800160010185558215620002b9579182015b82811115620002b85782518255916020019190600101906200029b565b5b509050620002c89190620002cc565b5090565b620002f191905b80821115620002ed576000816000905550600101620002d3565b5090565b90565b611cbf80620003046000396000f30060606040526004361061013e576000357c0100000000000000000000000000000000000000000000000000000000900463ffffffff16806306fdde0314610450578063095ea7b3146104de57806318160ddd146105385780632194f3a21461056157806323548b8b146105b657806323b872dd146105df578063313ce56714610658578063372c12b11461068757806344ba74d1146106d857806357cdd0781461074e578063661884631461077b57806370a08231146107d557806395d89b41146108225780639acba2af146108b05780639b2cb5d8146108d9578063a24bcf4614610902578063a9059cbb14610939578063af364c0514610993578063b2747064146109ca578063bceef6a714610a0e578063c5c4744c14610a37578063d73dd62314610a60578063dd62ed3e14610aba578063e6fd48bc14610b26575b6000610148610b4f565b15151561015457600080fd5b600b54341015151561016557600080fd5b600e60009054906101000a900460ff16806101c95750600f60003373ffffffffffffffffffffffffffffffffffffffff1673ffffffffffffffffffffffffffffffffffffffff16815260200190815260200160002060009054906101000a900460ff165b15156101d457600080fd5b6101e934600754610b9990919063ffffffff16565b6007819055506101f834610bb7565b905061026d81600080601060009054906101000a900473ffffffffffffffffffffffffffffffffffffffff1673ffffffffffffffffffffffffffffffffffffffff1673ffffffffffffffffffffffffffffffffffffffff16815260200190815260200160002054610c4d90919063ffffffff16565b600080601060009054906101000a900473ffffffffffffffffffffffffffffffffffffffff1673ffffffffffffffffffffffffffffffffffffffff1673ffffffffffffffffffffffffffffffffffffffff16815260200190815260200160002081905550610322816000803373ffffffffffffffffffffffffffffffffffffffff1673ffffffffffffffffffffffffffffffffffffffff16815260200190815260200160002054610b9990919063ffffffff16565b6000803373ffffffffffffffffffffffffffffffffffffffff1673ffffffffffffffffffffffffffffffffffffffff168152602001908152602001600020819055503373ffffffffffffffffffffffffffffffffffffffff16601060009054906101000a900473ffffffffffffffffffffffffffffffffffffffff1673ffffffffffffffffffffffffffffffffffffffff167fddf252ad1be2c89b69c2b068fc378daa952ba7f163c4a11628f55a4df523b3ef836040518082815260200191505060405180910390a3601060009054906101000a900473ffffffffffffffffffffffffffffffffffffffff1673ffffffffffffffffffffffffffffffffffffffff166108fc349081150290604051600060405180830381858888f19350505050151561044d57600080fd5b50005b341561045b57600080fd5b610463610c66565b6040518080602001828103825283818151815260200191508051906020019080838360005b838110156104a3578082015181840152602081019050610488565b50505050905090810190601f1680156104d05780820380516001836020036101000a031916815260200191505b509250505060405180910390f35b34156104e957600080fd5b61051e600480803573ffffffffffffffffffffffffffffffffffffffff16906020019091908035906020019091905050610d04565b604051808215151515815260200191505060405180910390f35b341561054357600080fd5b61054b610df6565b6040518082815260200191505060405180910390f35b341561056c57600080fd5b610574610dfc565b604051808273ffffffffffffffffffffffffffffffffffffffff1673ffffffffffffffffffffffffffffffffffffffff16815260200191505060405180910390f35b34156105c157600080fd5b6105c9610e22565b6040518082815260200191505060405180910390f35b34156105ea57600080fd5b61063e600480803573ffffffffffffffffffffffffffffffffffffffff1690602001909190803573ffffffffffffffffffffffffffffffffffffffff16906020019091908035906020019091905050610e28565b604051808215151515815260200191505060405180910390f35b341561066357600080fd5b61066b6111e2565b604051808260ff1660ff16815260200191505060405180910390f35b341561069257600080fd5b6106be600480803573ffffffffffffffffffffffffffffffffffffffff169060200190919050506111f5565b604051808215151515815260200191505060405180910390f35b34156106e357600080fd5b61074c60048080359060200190919080359060200190919080359060200190919080359060200190919080359060200190919080359060200190919080359060200190919080359060200190919080359060200190919080351515906020019091905050611215565b005b341561075957600080fd5b610761610b4f565b604051808215151515815260200191505060405180910390f35b341561078657600080fd5b6107bb600480803573ffffffffffffffffffffffffffffffffffffffff16906020019091908035906020019091905050611337565b604051808215151515815260200191505060405180910390f35b34156107e057600080fd5b61080c600480803573ffffffffffffffffffffffffffffffffffffffff169060200190919050506115c8565b6040518082815260200191505060405180910390f35b341561082d57600080fd5b610835611610565b6040518080602001828103825283818151815260200191508051906020019080838360005b8381101561087557808201518184015260208101905061085a565b50505050905090810190601f1680156108a25780820380516001836020036101000a031916815260200191505b509250505060405180910390f35b34156108bb57600080fd5b6108c36116ae565b6040518082815260200191505060405180910390f35b34156108e457600080fd5b6108ec6116b4565b6040518082815260200191505060405180910390f35b341561090d57600080fd5b6109236004808035906020019091905050610bb7565b6040518082815260200191505060405180910390f35b341561094457600080fd5b610979600480803573ffffffffffffffffffffffffffffffffffffffff169060200190919080359060200190919050506116ba565b604051808215151515815260200191505060405180910390f35b341561099e57600080fd5b6109b460048080359060200190919050506118d9565b6040518082815260200191505060405180910390f35b34156109d557600080fd5b610a0c600480803573ffffffffffffffffffffffffffffffffffffffff1690602001909190803515159060200190919050506118f1565b005b3415610a1957600080fd5b610a216119a8565b6040518082815260200191505060405180910390f35b3415610a4257600080fd5b610a4a6119ae565b6040518082815260200191505060405180910390f35b3415610a6b57600080fd5b610aa0600480803573ffffffffffffffffffffffffffffffffffffffff169060200190919080359060200190919050506119b4565b604051808215151515815260200191505060405180910390f35b3415610ac557600080fd5b610b10600480803573ffffffffffffffffffffffffffffffffffffffff1690602001909190803573ffffffffffffffffffffffffffffffffffffffff16906020019091905050611bb0565b6040518082815260200191505060405180910390f35b3415610b3157600080fd5b610b39611c37565b6040518082815260200191505060405180910390f35b6000600854421015610b645760009050610b96565b60095460085401421115610b7b5760009050610b96565b600a54600754101515610b915760009050610b96565b600190505b90565b6000808284019050838110151515610bad57fe5b8091505092915050565b6000806000610bd1600c5485611c3d90919063ffffffff16565b9150600190505b600481111515610c425762093a806008540142111515610c3557610c2e6064610c20600d60008581526020019081526020016000205460640185611c3d90919063ffffffff16565b611c7890919063ffffffff16565b9250610c46565b8080600101915050610bd8565b8192505b5050919050565b6000828211151515610c5b57fe5b818303905092915050565b60038054600181600116156101000203166002900480601f016020809104026020016040519081016040528092919081815260200182805460018160011615610100020316600290048015610cfc5780601f10610cd157610100808354040283529160200191610cfc565b820191906000526020600020905b815481529060010190602001808311610cdf57829003601f168201915b505050505081565b600081600260003373ffffffffffffffffffffffffffffffffffffffff1673ffffffffffffffffffffffffffffffffffffffff16815260200190815260200160002060008573ffffffffffffffffffffffffffffffffffffffff1673ffffffffffffffffffffffffffffffffffffffff168152602001908152602001600020819055508273ffffffffffffffffffffffffffffffffffffffff163373ffffffffffffffffffffffffffffffffffffffff167f8c5be1e5ebec7d5bd14f71427d1e84f3dd0314c0f7b2291e5b200ac8c7c3b925846040518082815260200191505060405180910390a36001905092915050565b60065481565b601060009054906101000a900473ffffffffffffffffffffffffffffffffffffffff1681565b600a5481565b60008073ffffffffffffffffffffffffffffffffffffffff168373ffffffffffffffffffffffffffffffffffffffff1614151515610e6557600080fd5b6000808573ffffffffffffffffffffffffffffffffffffffff1673ffffffffffffffffffffffffffffffffffffffff168152602001908152602001600020548211151515610eb257600080fd5b600260008573ffffffffffffffffffffffffffffffffffffffff1673ffffffffffffffffffffffffffffffffffffffff16815260200190815260200160002060003373ffffffffffffffffffffffffffffffffffffffff1673ffffffffffffffffffffffffffffffffffffffff168152602001908152602001600020548211151515610f3d57600080fd5b610f8e826000808773ffffffffffffffffffffffffffffffffffffffff1673ffffffffffffffffffffffffffffffffffffffff16815260200190815260200160002054610c4d90919063ffffffff16565b6000808673ffffffffffffffffffffffffffffffffffffffff1673ffffffffffffffffffffffffffffffffffffffff16815260200190815260200160002081905550611021826000808673ffffffffffffffffffffffffffffffffffffffff1673ffffffffffffffffffffffffffffffffffffffff16815260200190815260200160002054610b9990919063ffffffff16565b6000808573ffffffffffffffffffffffffffffffffffffffff1673ffffffffffffffffffffffffffffffffffffffff168152602001908152602001600020819055506110f282600260008773ffffffffffffffffffffffffffffffffffffffff1673ffffffffffffffffffffffffffffffffffffffff16815260200190815260200160002060003373ffffffffffffffffffffffffffffffffffffffff1673ffffffffffffffffffffffffffffffffffffffff16815260200190815260200160002054610c4d90919063ffffffff16565b600260008673ffffffffffffffffffffffffffffffffffffffff1673ffffffffffffffffffffffffffffffffffffffff16815260200190815260200160002060003373ffffffffffffffffffffffffffffffffffffffff1673ffffffffffffffffffffffffffffffffffffffff168152602001908152602001600020819055508273ffffffffffffffffffffffffffffffffffffffff168473ffffffffffffffffffffffffffffffffffffffff167fddf252ad1be2c89b69c2b068fc378daa952ba7f163c4a11628f55a4df523b3ef846040518082815260200191505060405180910390a3600190509392505050565b600560009054906101000a900460ff1681565b600f6020528060005260406000206000915054906101000a900460ff1681565b601060009054906101000a900473ffffffffffffffffffffffffffffffffffffffff1673ffffffffffffffffffffffffffffffffffffffff163373ffffffffffffffffffffffffffffffffffffffff1614151561127157600080fd5b611279610b4f565b15151561128257fe5b896008819055508860098190555087600c8190555086600a8190555085600b8190555084600d6000600181526020019081526020016000208190555083600d6000600281526020019081526020016000208190555082600d6000600381526020019081526020016000208190555081600d6000600481526020019081526020016000208190555080600e60006101000a81548160ff021916908315150217905550600060078190555050505050505050505050565b600080600260003373ffffffffffffffffffffffffffffffffffffffff1673ffffffffffffffffffffffffffffffffffffffff16815260200190815260200160002060008573ffffffffffffffffffffffffffffffffffffffff1673ffffffffffffffffffffffffffffffffffffffff16815260200190815260200160002054905080831115611448576000600260003373ffffffffffffffffffffffffffffffffffffffff1673ffffffffffffffffffffffffffffffffffffffff16815260200190815260200160002060008673ffffffffffffffffffffffffffffffffffffffff1673ffffffffffffffffffffffffffffffffffffffff168152602001908152602001600020819055506114dc565b61145b8382610c4d90919063ffffffff16565b600260003373ffffffffffffffffffffffffffffffffffffffff1673ffffffffffffffffffffffffffffffffffffffff16815260200190815260200160002060008673ffffffffffffffffffffffffffffffffffffffff1673ffffffffffffffffffffffffffffffffffffffff168152602001908152602001600020819055505b8373ffffffffffffffffffffffffffffffffffffffff163373ffffffffffffffffffffffffffffffffffffffff167f8c5be1e5ebec7d5bd14f71427d1e84f3dd0314c0f7b2291e5b200ac8c7c3b925600260003373ffffffffffffffffffffffffffffffffffffffff1673ffffffffffffffffffffffffffffffffffffffff16815260200190815260200160002060008873ffffffffffffffffffffffffffffffffffffffff1673ffffffffffffffffffffffffffffffffffffffff168152602001908152602001600020546040518082815260200191505060405180910390a3600191505092915050565b60008060008373ffffffffffffffffffffffffffffffffffffffff1673ffffffffffffffffffffffffffffffffffffffff168152602001908152602001600020549050919050565b60048054600181600116156101000203166002900480601f0160208091040260200160405190810160405280929190818152602001828054600181600116156101000203166002900480156116a65780601f1061167b576101008083540402835291602001916116a6565b820191906000526020600020905b81548152906001019060200180831161168957829003601f168201915b505050505081565b60095481565b600b5481565b60008073ffffffffffffffffffffffffffffffffffffffff168373ffffffffffffffffffffffffffffffffffffffff16141515156116f757600080fd5b6000803373ffffffffffffffffffffffffffffffffffffffff1673ffffffffffffffffffffffffffffffffffffffff16815260200190815260200160002054821115151561174457600080fd5b611795826000803373ffffffffffffffffffffffffffffffffffffffff1673ffffffffffffffffffffffffffffffffffffffff16815260200190815260200160002054610c4d90919063ffffffff16565b6000803373ffffffffffffffffffffffffffffffffffffffff1673ffffffffffffffffffffffffffffffffffffffff16815260200190815260200160002081905550611828826000808673ffffffffffffffffffffffffffffffffffffffff1673ffffffffffffffffffffffffffffffffffffffff16815260200190815260200160002054610b9990919063ffffffff16565b6000808573ffffffffffffffffffffffffffffffffffffffff1673ffffffffffffffffffffffffffffffffffffffff168152602001908152602001600020819055508273ffffffffffffffffffffffffffffffffffffffff163373ffffffffffffffffffffffffffffffffffffffff167fddf252ad1be2c89b69c2b068fc378daa952ba7f163c4a11628f55a4df523b3ef846040518082815260200191505060405180910390a36001905092915050565b600d6020528060005260406000206000915090505481565b601060009054906101000a900473ffffffffffffffffffffffffffffffffffffffff1673ffffffffffffffffffffffffffffffffffffffff163373ffffffffffffffffffffffffffffffffffffffff1614151561194d57600080fd5b80600f60008473ffffffffffffffffffffffffffffffffffffffff1673ffffffffffffffffffffffffffffffffffffffff16815260200190815260200160002060006101000a81548160ff0219169083151502179055505050565b600c5481565b60075481565b6000611a4582600260003373ffffffffffffffffffffffffffffffffffffffff1673ffffffffffffffffffffffffffffffffffffffff16815260200190815260200160002060008673ffffffffffffffffffffffffffffffffffffffff1673ffffffffffffffffffffffffffffffffffffffff16815260200190815260200160002054610b9990919063ffffffff16565b600260003373ffffffffffffffffffffffffffffffffffffffff1673ffffffffffffffffffffffffffffffffffffffff16815260200190815260200160002060008573ffffffffffffffffffffffffffffffffffffffff1673ffffffffffffffffffffffffffffffffffffffff168152602001908152602001600020819055508273ffffffffffffffffffffffffffffffffffffffff163373ffffffffffffffffffffffffffffffffffffffff167f8c5be1e5ebec7d5bd14f71427d1e84f3dd0314c0f7b2291e5b200ac8c7c3b925600260003373ffffffffffffffffffffffffffffffffffffffff1673ffffffffffffffffffffffffffffffffffffffff16815260200190815260200160002060008773ffffffffffffffffffffffffffffffffffffffff1673ffffffffffffffffffffffffffffffffffffffff168152602001908152602001600020546040518082815260200191505060405180910390a36001905092915050565b6000600260008473ffffffffffffffffffffffffffffffffffffffff1673ffffffffffffffffffffffffffffffffffffffff16815260200190815260200160002060008373ffffffffffffffffffffffffffffffffffffffff1673ffffffffffffffffffffffffffffffffffffffff16815260200190815260200160002054905092915050565b60085481565b6000806000841415611c525760009150611c71565b8284029050828482811515611c6357fe5b04141515611c6d57fe5b8091505b5092915050565b6000808284811515611c8657fe5b04905080915050929150505600a165627a7a72305820345d50848e257fc46badf7a670d4710f98e5430326e76547c1daa9d5d60c3d2c0029",
  "source": "pragma solidity ^0.4.19;\n\nimport 'zeppelin-solidity/contracts/token/ERC20/StandardToken.sol';\n\ncontract BoostoToken is StandardToken {\n    using SafeMath for uint256;\n\n    string public name = \"Boosto\";\n    string public symbol = \"BST\";\n    uint8 public decimals = 18;\n\n    // 1B total supply\n    uint256 public totalSupply = 1000000000 * (uint256(10) ** decimals);\n    \n    uint256 public totalRaised; // total ether raised (in wei)\n\n    uint256 public startTimestamp; // timestamp after which ICO will start\n    \n    // 1 month = 1 * 30 * 24 * 60 * 60\n    uint256 public durationSeconds;\n\n    // the ICO ether max cap (in wei)\n    uint256 public maxCap;\n\n    \n     // Minimum Transaction Amount(0.1 ETH)\n    uint256 public minAmount = 0.1 ether;\n\n    // 1 ETH = X BST\n    uint256 public coinsPerETH = 1000;\n\n    /**\n     * weeklyRewards[week number] = percent\n     * for example weeklyRewards[1] = 20 -- 20% more coins for first week after ICO start\n     */\n    mapping(uint => uint) public weeklyRewards;\n\n    /**\n     * if true, everyone can participate in ICOs.\n     * otherwise just whitelisted wallets can participate\n     */\n    bool isPublic = false;\n\n    /**\n     * mapping to save whitelisted users\n     */\n    mapping(address => bool) public whiteList;\n    \n    /**\n     * Address which will receive raised funds \n     * and owns the total supply of tokens\n     */\n    address public fundsWallet;\n\n    /**\n     * @dev Constructor\n     */\n    function BoostoToken() public{\n        fundsWallet = msg.sender;\n\n        startTimestamp = now;\n\n        // ICO is not active by default. Admin can set it later\n        durationSeconds = 0;\n\n        //initially assign all tokens to the fundsWallet\n        balances[fundsWallet] = totalSupply;\n        Transfer(0x0, fundsWallet, totalSupply);\n    }\n\n    /**\n     * @dev Constructor\n     */\n    //function BoostoToken() public{\n    //    fundsWallet = msg.sender;\n    //\n    //    startTimestamp = now;\n    //\n    //    // ICO is not active by default. Admin can set it later\n    //    durationSeconds = 0;\n    //\n    //    //initially assign all tokens to the fundsWallet\n    //    balances[fundsWallet] = totalSupply;\n    //    Transfer(0x0, fundsWallet, totalSupply);\n    //}\n\n    /**\n     * @dev Checks if an ICO is open\n     */\n    modifier isIcoOpen() {\n        require(!isIcoInProgress());\n        _;\n    }\n\n    /**\n     * @dev Checks if that ISO is finished\n     */\n    modifier isIcoFinished() {\n        require(now >= startTimestamp);\n        require(totalRaised >= maxCap || (now >= (startTimestamp + durationSeconds)));\n        _;\n    }\n\n    /**\n     * @dev Checks if the investment amount is greater than min amount\n     */\n    modifier checkMin(){\n        require(msg.value >= minAmount);\n        _;\n    }\n\n    /**\n     * @dev Checks if msg.sender can participate in the ICO\n     */\n    modifier isWhiteListed(){\n        require(isPublic || whiteList[msg.sender]);\n        _;\n    }\n\n    /**\n     * @dev Checks if msg.sender is admin\n     */\n\n    modifier isOwner(){\n        require(msg.sender == fundsWallet);\n        _;\n    }\n\n    /**\n     * @dev Payable fallback. This function will be called\n     * when investors send ETH to buy BST\n     */\n    function() public isIcoOpen checkMin isWhiteListed payable{\n        totalRaised = totalRaised.add(msg.value);\n\n        uint256 tokenAmount = calculateTokenAmount(msg.value);\n        balances[fundsWallet] = balances[fundsWallet].sub(tokenAmount);\n        balances[msg.sender] = balances[msg.sender].add(tokenAmount);\n\n        Transfer(fundsWallet, msg.sender, tokenAmount);\n\n        // immediately transfer ether to fundsWallet\n        fundsWallet.transfer(msg.value);\n    }\n\n    /**\n     * @dev Calculates token amount for investors based on weekly rewards\n     * and msg.value\n     * @param weiAmount ETH amount in wei amount\n     * @return Total BST amount\n     */\n    function calculateTokenAmount(uint256 weiAmount) public constant returns(uint256) {\n        uint256 tokenAmount = weiAmount.mul(coinsPerETH);\n        // setting rewards is possible only for 4 weeks\n        for (uint i = 1; i <= 4; i++) {\n            if (now <= startTimestamp + 7 days) {\n                return tokenAmount.mul(100+weeklyRewards[i]).div(100);    \n            }\n        }\n        return tokenAmount;\n    }\n\n    /**\n     * @dev Update WhiteList for an address\n     * @param _address The address\n     * @param _value Boolean to represent the status\n     */\n    function adminUpdateWhiteList(address _address, bool _value) public isOwner{\n        whiteList[_address] = _value;\n    }\n\n\n    /**\n     * @dev Allows admin to launch a new ICO\n     * @param _startTimestamp Start timestamp in epochs\n     * @param _durationSeconds ICO time in seconds(1 day=24*60*60)\n     * @param _coinsPerETH BST price in ETH(1 ETH = ? BST)\n     * @param _maxCap Max ETH capture in wei amount\n     * @param _minAmount Min ETH amount per user in wei amount\n     * @param _week1Rewards % of rewards for week 1\n     * @param _week2Rewards % of rewards for week 2\n     * @param _week3Rewards % of rewards for week 3\n     * @param _week4Rewards % of rewards for week 4\n     * @param _isPublic Boolean to represent that the ICO is public or not\n     */\n    function adminAddICO(uint256 _startTimestamp, uint256 _durationSeconds, \n        uint256 _coinsPerETH, uint256 _maxCap, uint256 _minAmount, uint _week1Rewards,\n        uint _week2Rewards, uint _week3Rewards, uint _week4Rewards, bool _isPublic) public isOwner{\n\n        // we can't add a new ICO when an ICO is already in progress\n        assert(!isIcoInProgress());\n\n        startTimestamp = _startTimestamp;\n        durationSeconds = _durationSeconds;\n        coinsPerETH = _coinsPerETH;\n        maxCap = _maxCap;\n        minAmount = _minAmount;\n\n        weeklyRewards[1] = _week1Rewards;\n        weeklyRewards[2] = _week2Rewards;\n        weeklyRewards[3] = _week3Rewards;\n        weeklyRewards[4] = _week4Rewards;\n\n        isPublic = _isPublic;\n        // reset totalRaised\n        totalRaised = 0;\n\n    }\n\n    /**\n     * @dev Return true if an ICO is already in progress;\n     * otherwise returns false\n     */\n    function isIcoInProgress() public constant returns(bool){\n        if(now < startTimestamp){\n            return false;\n        }\n        if(now > (startTimestamp + durationSeconds)){\n            return false;\n        }\n        if(totalRaised >= maxCap){\n            return false;\n        }\n        return true;\n    }\n}\n",
  "sourcePath": "/home/projects/BOOSTOToken/contracts/BoostoToken.sol",
  "compiler": {
    "name": "solc",
    "version": "0.4.19+commit.c4cbbb05.Emscripten.clang"
  },
  "schemaVersion": "1.0.1",
  "updatedAt": "2018-03-28T02:10:54.423Z"
}