{
  "contractName": "BoostoPoolFactory",
  "abi": [
    {
      "anonymous": false,
      "inputs": [
        {
          "indexed": false,
          "name": "creator",
          "type": "address"
        },
        {
          "indexed": false,
          "name": "pool",
          "type": "address"
        }
      ],
      "name": "NewPool",
      "type": "event"
    },
    {
      "constant": false,
      "inputs": [
        {
          "name": "_startDate",
          "type": "uint256"
        },
        {
          "name": "_duration",
          "type": "uint256"
        },
        {
          "name": "_winnerCount",
          "type": "uint256"
        },
        {
          "name": "_bonus",
          "type": "uint256"
        },
        {
          "name": "_bonusInETH",
          "type": "bool"
        },
        {
          "name": "_unit",
          "type": "uint256"
        },
        {
          "name": "_BSTAmount",
          "type": "uint256"
        },
        {
          "name": "_size",
          "type": "uint256"
        },
        {
          "name": "_fundsWallet",
          "type": "address"
        },
        {
          "name": "_operatorWallet",
          "type": "address"
        }
      ],
      "name": "createNew",
      "outputs": [
        {
          "name": "created",
          "type": "address"
        }
      ],
      "payable": false,
      "stateMutability": "nonpayable",
      "type": "function"
    }
  ],
  "bytecode": "0x608060405234801561001057600080fd5b50610e83806100206000396000f3006080604052600436106100405763ffffffff7c010000000000000000000000000000000000000000000000000000000060003504166329055edd8114610045575b600080fd5b34801561005157600080fd5b50610095600435602435604435606435608435151560a43560c43560e43573ffffffffffffffffffffffffffffffffffffffff6101043581169061012435166100be565b6040805173ffffffffffffffffffffffffffffffffffffffff9092168252519081900360200190f35b6000808b8b8b8b8b8b8b8b8b8b6100d36101b3565b998a5260208a01989098526040808a01979097526060890195909552921515608088015260a087019190915260c086015260e085015273ffffffffffffffffffffffffffffffffffffffff90811661010085015291909116610120830152519081900361014001906000f080158015610150573d6000803e3d6000fd5b506040805133815273ffffffffffffffffffffffffffffffffffffffff8316602082015281519293507f77948cb83ef3caff9ac13dfab1ea1f8a6875c98370287ce587f5dbc74cc5b6b0929081900390910190a1509a9950505050505050505050565b604051610c94806101c4833901905600608060405260048054600160a060020a03191673df0041891bda1f911c4243f328f7cf61b37f965b1790556000600b5534801561003b57600080fd5b5060405161014080610c9483398101604090815281516020830151918301516060840151608085015160a086015160c087015160e088015161010089015161012090990151600e97909755600f97909755600a94909455600c92909255600d805460ff191691151591909117905560075560095560089190915560058054600160a060020a0319908116600160a060020a03948516179091556006805490911692909116919091179055610ba0806100f46000396000f3006080604052600436106101065763ffffffff7c01000000000000000000000000000000000000000000000000000000006000350416630b97bc8681146102ba5780630fb5a6b4146102e1578063276eb720146102f657806329b8caff1461030b57806331e6a70714610320578063356f55b71461035b5780633b17ebb11461036557806356ce8c891461037a5780635ec01e4d1461038f5780636bd5450a146103a45780636f7bc9be146103d957806375b4d78c146103fa5780637d5c19141461040f578063907af6c014610430578063949d225d14610445578063a1577cf51461045a578063caa02e081461046f578063e402080414610484578063f18d20be14610499575b600754600090341461011757600080fd5b3360009081526002602052604090205460ff161561013457600080fd5b60085460005410801561014c5750600f54600e540142105b801561015a5750600e544210155b151561016557600080fd5b600554604051600160a060020a03909116903480156108fc02916000818181858888f1935050505015801561019e573d6000803e3d6000fd5b505060048054600954604080517fa9059cbb0000000000000000000000000000000000000000000000000000000081523394810194909452602484019190915251600160a060020a0390911691829163a9059cbb916044808201926020929091908290030181600087803b15801561021557600080fd5b505af1158015610229573d6000803e3d6000fd5b505050506040513d602081101561023f57600080fd5b50506001805433919061025482828101610b37565b8154811061025e57fe5b6000918252602080832091909101805473ffffffffffffffffffffffffffffffffffffffff1916600160a060020a039490941693909317909255338152600290915260408120805460ff19166001908117909155815401905550005b3480156102c657600080fd5b506102cf6104ae565b60408051918252519081900360200190f35b3480156102ed57600080fd5b506102cf6104b4565b34801561030257600080fd5b506102cf6104ba565b34801561031757600080fd5b506102cf6104c0565b34801561032c57600080fd5b506103386004356104c6565b60408051600160a060020a03909316835290151560208301528051918290030190f35b61036361050b565b005b34801561037157600080fd5b5061036361054f565b34801561038657600080fd5b506102cf61074f565b34801561039b57600080fd5b506102cf610755565b3480156103b057600080fd5b506103c5600160a060020a0360043516610784565b604080519115158252519081900360200190f35b3480156103e557600080fd5b506103c5600160a060020a0360043516610799565b34801561040657600080fd5b506102cf6107ae565b34801561041b57600080fd5b506103c5600160a060020a03600435166107b4565b34801561043c57600080fd5b506102cf6107d2565b34801561045157600080fd5b506102cf6107d8565b34801561046657600080fd5b506103c56107de565b34801561047b57600080fd5b506102cf6107e7565b34801561049057600080fd5b506103c56107ed565b3480156104a557600080fd5b5061036361092d565b600e5481565b600f5481565b60095481565b60005481565b6000806001838154811015156104d857fe5b6000918252602080832090910154600160a060020a03168083526003909152604090912054909460ff9091169350915050565b600654600160a060020a0316331461052257600080fd5b600d5460ff16151561053057fe5b600c54600a546105459163ffffffff610af216565b341461054d57fe5b565b60006008546000541015151561056457600080fd5b600654600160a060020a0316331461057b57600080fd5b600a54600b541061058857fe5b610590610755565b9050600360006001838154811015156105a557fe5b6000918252602080832090910154600160a060020a0316835282019290925260400190205460ff16156105d457fe5b6001600360006001848154811015156105e957fe5b600091825260208083209190910154600160a060020a031683528201929092526040019020805460ff1916911515919091179055600b80546001019055600d5460ff161561068757600180548290811061063f57fe5b6000918252602082200154600c54604051600160a060020a039092169281156108fc029290818181858888f19350505050158015610681573d6000803e3d6000fd5b5061074c565b60045460018054600160a060020a039092169163a9059cbb9190849081106106ab57fe5b6000918252602080832090910154600c54604080517c010000000000000000000000000000000000000000000000000000000063ffffffff8816028152600160a060020a03909316600484015260248301919091525160448083019491928390030190829087803b15801561071f57600080fd5b505af1158015610733573d6000803e3d6000fd5b505050506040513d602081101561074957600080fd5b50505b50565b600b5481565b6008546040805142815244602082015281519081900390910190206000919081151561077d57fe5b0690505b90565b60036020526000908152604090205460ff1681565b60026020526000908152604090205460ff1681565b600c5481565b600160a060020a031660009081526003602052604090205460ff1690565b60075481565b60085481565b600d5460ff1681565b600a5481565b600d546000908190819060ff16801561081a5750600c54600a546108169163ffffffff610af216565b3031105b156108285760009250610928565b60048054604080517f70a08231000000000000000000000000000000000000000000000000000000008152309381019390935251600160a060020a03909116916370a082319160248083019260209291908290030181600087803b15801561088f57600080fd5b505af11580156108a3573d6000803e3d6000fd5b505050506040513d60208110156108b957600080fd5b50516000546008546009549294506108d99291900363ffffffff610af216565b600d5490915060ff1615156109125761090f610902600c54600a54610af290919063ffffffff16565b839063ffffffff610b2816565b90505b808210156109235760009250610928565b600192505b505090565b60065460009081908190600160a060020a0316331461094b57600080fd5b6008546000541015806109645750600f54600e54014210155b151561096f57600080fd5b600854600054111561097d57fe5b60048054604080517f70a08231000000000000000000000000000000000000000000000000000000008152309381019390935251600160a060020a03909116945084916370a082319160248083019260209291908290030181600087803b1580156109e757600080fd5b505af11580156109fb573d6000803e3d6000fd5b505050506040513d6020811015610a1157600080fd5b505191506000821115610ab357604080517fa9059cbb000000000000000000000000000000000000000000000000000000008152336004820152602481018490529051600160a060020a0385169163a9059cbb9160448083019260209291908290030181600087803b158015610a8657600080fd5b505af1158015610a9a573d6000803e3d6000fd5b505050506040513d6020811015610ab057600080fd5b50505b503031600081111561074957604051339082156108fc029083906000818181858888f19350505050158015610aec573d6000803e3d6000fd5b50505050565b600080831515610b055760009150610b21565b50828202828482811515610b1557fe5b0414610b1d57fe5b8091505b5092915050565b600082820183811015610b1d57fe5b8154818355818111156107495760008381526020902061074991810190830161078191905b80821115610b705760008155600101610b5c565b50905600a165627a7a723058207758699a71b09768862a3b26b836437d143c344d9e71d2914ee0d6d9beca5d6b0029a165627a7a7230582016cdf7e8c05cc47710ba9ccc0d168898899fe18241b2f6ebd85dc350b7f6c04d0029",
  "source": "pragma solidity ^0.4.25;\n\nimport 'contracts/BoostoPool.sol';\n\n\ncontract BoostoPoolFactory {\n\n    event NewPool(address creator, address pool);\n\n    function createNew(\n        uint256 _startDate,\n        uint256 _duration,\n        uint256 _winnerCount,\n        uint256 _bonus,\n        bool _bonusInETH,\n        uint256 _unit,\n        uint256 _BSTAmount,\n        uint256 _size,\n        address _fundsWallet,\n        address _operatorWallet\n    ) public returns(address created){\n        address ret = new BoostoPool(\n            _startDate,\n            _duration,\n            _winnerCount,\n            _bonus,\n            _bonusInETH,\n            _unit,\n            _BSTAmount,\n            _size,\n            _fundsWallet,\n            _operatorWallet\n        );\n        emit NewPool(msg.sender, ret);\n    }\n}\n",
  "sourcePath": "/home/projects/BOOSTOToken/contracts/BoostoPoolFactory.sol",
  "compiler": {
    "name": "solc",
    "version": "0.4.25+commit.59dbf8f1.Emscripten.clang"
  },
  "schemaVersion": "2.0.1",
  "updatedAt": "2018-09-22T03:54:53.035Z"
}