{
  "contractName": "BoostoToken",
  "abi": [
    {
      "constant": true,
      "inputs": [],
      "name": "name",
      "outputs": [
        {
          "name": "",
          "type": "string"
        }
      ],
      "payable": false,
      "stateMutability": "view",
      "type": "function"
    },
    {
      "constant": false,
      "inputs": [
        {
          "name": "_spender",
          "type": "address"
        },
        {
          "name": "_value",
          "type": "uint256"
        }
      ],
      "name": "approve",
      "outputs": [
        {
          "name": "",
          "type": "bool"
        }
      ],
      "payable": false,
      "stateMutability": "nonpayable",
      "type": "function"
    },
    {
      "constant": true,
      "inputs": [],
      "name": "totalSupply",
      "outputs": [
        {
          "name": "",
          "type": "uint256"
        }
      ],
      "payable": false,
      "stateMutability": "view",
      "type": "function"
    },
    {
      "constant": true,
      "inputs": [],
      "name": "fundsWallet",
      "outputs": [
        {
          "name": "",
          "type": "address"
        }
      ],
      "payable": false,
      "stateMutability": "view",
      "type": "function"
    },
    {
      "constant": true,
      "inputs": [],
      "name": "maxCap",
      "outputs": [
        {
          "name": "",
          "type": "uint256"
        }
      ],
      "payable": false,
      "stateMutability": "view",
      "type": "function"
    },
    {
      "constant": false,
      "inputs": [
        {
          "name": "_from",
          "type": "address"
        },
        {
          "name": "_to",
          "type": "address"
        },
        {
          "name": "_value",
          "type": "uint256"
        }
      ],
      "name": "transferFrom",
      "outputs": [
        {
          "name": "",
          "type": "bool"
        }
      ],
      "payable": false,
      "stateMutability": "nonpayable",
      "type": "function"
    },
    {
      "constant": true,
      "inputs": [],
      "name": "decimals",
      "outputs": [
        {
          "name": "",
          "type": "uint8"
        }
      ],
      "payable": false,
      "stateMutability": "view",
      "type": "function"
    },
    {
      "constant": true,
      "inputs": [
        {
          "name": "",
          "type": "address"
        }
      ],
      "name": "whiteList",
      "outputs": [
        {
          "name": "",
          "type": "bool"
        }
      ],
      "payable": false,
      "stateMutability": "view",
      "type": "function"
    },
    {
      "constant": false,
      "inputs": [
        {
          "name": "_spender",
          "type": "address"
        },
        {
          "name": "_subtractedValue",
          "type": "uint256"
        }
      ],
      "name": "decreaseApproval",
      "outputs": [
        {
          "name": "",
          "type": "bool"
        }
      ],
      "payable": false,
      "stateMutability": "nonpayable",
      "type": "function"
    },
    {
      "constant": true,
      "inputs": [
        {
          "name": "_owner",
          "type": "address"
        }
      ],
      "name": "balanceOf",
      "outputs": [
        {
          "name": "balance",
          "type": "uint256"
        }
      ],
      "payable": false,
      "stateMutability": "view",
      "type": "function"
    },
    {
      "constant": true,
      "inputs": [
        {
          "name": "",
          "type": "uint256"
        }
      ],
      "name": "hourlyRewards",
      "outputs": [
        {
          "name": "passedHours",
          "type": "uint256"
        },
        {
          "name": "percent",
          "type": "uint256"
        }
      ],
      "payable": false,
      "stateMutability": "view",
      "type": "function"
    },
    {
      "constant": true,
      "inputs": [],
      "name": "symbol",
      "outputs": [
        {
          "name": "",
          "type": "string"
        }
      ],
      "payable": false,
      "stateMutability": "view",
      "type": "function"
    },
    {
      "constant": true,
      "inputs": [],
      "name": "durationSeconds",
      "outputs": [
        {
          "name": "",
          "type": "uint256"
        }
      ],
      "payable": false,
      "stateMutability": "view",
      "type": "function"
    },
    {
      "constant": true,
      "inputs": [],
      "name": "minAmount",
      "outputs": [
        {
          "name": "",
          "type": "uint256"
        }
      ],
      "payable": false,
      "stateMutability": "view",
      "type": "function"
    },
    {
      "constant": false,
      "inputs": [
        {
          "name": "_to",
          "type": "address"
        },
        {
          "name": "_value",
          "type": "uint256"
        }
      ],
      "name": "transfer",
      "outputs": [
        {
          "name": "",
          "type": "bool"
        }
      ],
      "payable": false,
      "stateMutability": "nonpayable",
      "type": "function"
    },
    {
      "constant": true,
      "inputs": [],
      "name": "coinsPerETH",
      "outputs": [
        {
          "name": "",
          "type": "uint256"
        }
      ],
      "payable": false,
      "stateMutability": "view",
      "type": "function"
    },
    {
      "constant": true,
      "inputs": [],
      "name": "totalRaised",
      "outputs": [
        {
          "name": "",
          "type": "uint256"
        }
      ],
      "payable": false,
      "stateMutability": "view",
      "type": "function"
    },
    {
      "constant": false,
      "inputs": [
        {
          "name": "_spender",
          "type": "address"
        },
        {
          "name": "_addedValue",
          "type": "uint256"
        }
      ],
      "name": "increaseApproval",
      "outputs": [
        {
          "name": "",
          "type": "bool"
        }
      ],
      "payable": false,
      "stateMutability": "nonpayable",
      "type": "function"
    },
    {
      "constant": true,
      "inputs": [
        {
          "name": "_owner",
          "type": "address"
        },
        {
          "name": "_spender",
          "type": "address"
        }
      ],
      "name": "allowance",
      "outputs": [
        {
          "name": "",
          "type": "uint256"
        }
      ],
      "payable": false,
      "stateMutability": "view",
      "type": "function"
    },
    {
      "constant": true,
      "inputs": [],
      "name": "startTimestamp",
      "outputs": [
        {
          "name": "",
          "type": "uint256"
        }
      ],
      "payable": false,
      "stateMutability": "view",
      "type": "function"
    },
    {
      "inputs": [],
      "payable": false,
      "stateMutability": "nonpayable",
      "type": "constructor"
    },
    {
      "payable": true,
      "stateMutability": "payable",
      "type": "fallback"
    },
    {
      "anonymous": false,
      "inputs": [
        {
          "indexed": true,
          "name": "owner",
          "type": "address"
        },
        {
          "indexed": true,
          "name": "spender",
          "type": "address"
        },
        {
          "indexed": false,
          "name": "value",
          "type": "uint256"
        }
      ],
      "name": "Approval",
      "type": "event"
    },
    {
      "anonymous": false,
      "inputs": [
        {
          "indexed": true,
          "name": "from",
          "type": "address"
        },
        {
          "indexed": true,
          "name": "to",
          "type": "address"
        },
        {
          "indexed": false,
          "name": "value",
          "type": "uint256"
        }
      ],
      "name": "Transfer",
      "type": "event"
    },
    {
      "constant": true,
      "inputs": [
        {
          "name": "weiAmount",
          "type": "uint256"
        }
      ],
      "name": "calculateTokenAmount",
      "outputs": [
        {
          "name": "",
          "type": "uint256"
        }
      ],
      "payable": false,
      "stateMutability": "view",
      "type": "function"
    },
    {
      "constant": false,
      "inputs": [
        {
          "name": "_address",
          "type": "address"
        },
        {
          "name": "_value",
          "type": "bool"
        }
      ],
      "name": "adminUpdateWhiteList",
      "outputs": [],
      "payable": false,
      "stateMutability": "nonpayable",
      "type": "function"
    },
    {
      "constant": false,
      "inputs": [
        {
          "name": "_startTimestamp",
          "type": "uint256"
        },
        {
          "name": "_durationSeconds",
          "type": "uint256"
        },
        {
          "name": "_coinsPerETH",
          "type": "uint256"
        },
        {
          "name": "_maxCap",
          "type": "uint256"
        },
        {
          "name": "_minAmount",
          "type": "uint256"
        },
        {
          "name": "_rewardHours",
          "type": "uint256[]"
        },
        {
          "name": "_rewardPercents",
          "type": "uint256[]"
        },
        {
          "name": "_isPublic",
          "type": "bool"
        }
      ],
      "name": "adminAddICO",
      "outputs": [],
      "payable": false,
      "stateMutability": "nonpayable",
      "type": "function"
    },
    {
      "constant": true,
      "inputs": [],
      "name": "isIcoInProgress",
      "outputs": [
        {
          "name": "",
          "type": "bool"
        }
      ],
      "payable": false,
      "stateMutability": "view",
      "type": "function"
    }
  ],
  "bytecode": "0x60c0604052600660808190527f426f6f73746f000000000000000000000000000000000000000000000000000060a090815262000040916003919062000189565b506040805180820190915260038082527f42535400000000000000000000000000000000000000000000000000000000006020909201918252620000879160049162000189565b5060058054601260ff19918216179182905560ff909116600a0a633b9aca000260065567016345785d8a0000600b556103e8600c55600e805490911690556010805473776efa46b4b39aa6bd2d65ce01480b31042aeaa5600160a060020a0319918216179091556011805473c6bd816331b1bddc7c03ab51215bbb9e2be62dd292169190911790553480156200011c57600080fd5b50426008556000600981905560065460108054600160a060020a039081168452602084815260408086208590559254835194855292519290911693927fddf252ad1be2c89b69c2b068fc378daa952ba7f163c4a11628f55a4df523b3ef929081900390910190a36200022e565b828054600181600116156101000203166002900490600052602060002090601f016020900481019282601f10620001cc57805160ff1916838001178555620001fc565b82800160010185558215620001fc579182015b82811115620001fc578251825591602001919060010190620001df565b506200020a9291506200020e565b5090565b6200022b91905b808211156200020a576000815560010162000215565b90565b611007806200023e6000396000f30060806040526004361061013d5763ffffffff7c010000000000000000000000000000000000000000000000000000000060003504166306fdde0381146102a1578063095ea7b31461032b57806318160ddd146103635780632194f3a21461038a57806323548b8b146103bb57806323b872dd146103d0578063313ce567146103fa578063372c12b11461042557806357cdd07814610446578063661884631461045b57806370a082311461047f578063848f81ea146104a057806395d89b41146104d15780639acba2af146104e65780639b2cb5d8146104fb578063a24bcf4614610510578063a9059cbb14610528578063b27470641461054c578063bceef6a714610574578063c5c4744c14610589578063d25f08b11461059e578063d73dd62314610644578063dd62ed3e14610668578063e6fd48bc1461068f575b60006101476106a4565b151561015257600080fd5b600b5434101561016157600080fd5b600e5460ff16806101815750336000908152600f602052604090205460ff165b151561018c57600080fd5b60075461019f903463ffffffff6106e816565b6007556101ab34610702565b601054600160a060020a03166000908152602081905260409020549091506101d9908263ffffffff6107be16565b601054600160a060020a031660009081526020819052604080822092909255338152205461020d908263ffffffff6106e816565b336000818152602081815260409182902093909355601054815185815291519293600160a060020a03909116927fddf252ad1be2c89b69c2b068fc378daa952ba7f163c4a11628f55a4df523b3ef9281900390910190a3601054604051600160a060020a03909116903480156108fc02916000818181858888f1935050505015801561029d573d6000803e3d6000fd5b5050005b3480156102ad57600080fd5b506102b66107d0565b6040805160208082528351818301528351919283929083019185019080838360005b838110156102f05781810151838201526020016102d8565b50505050905090810190601f16801561031d5780820380516001836020036101000a031916815260200191505b509250505060405180910390f35b34801561033757600080fd5b5061034f600160a060020a036004351660243561085e565b604080519115158252519081900360200190f35b34801561036f57600080fd5b506103786108c4565b60408051918252519081900360200190f35b34801561039657600080fd5b5061039f6108ca565b60408051600160a060020a039092168252519081900360200190f35b3480156103c757600080fd5b506103786108d9565b3480156103dc57600080fd5b5061034f600160a060020a03600435811690602435166044356108df565b34801561040657600080fd5b5061040f610a56565b6040805160ff9092168252519081900360200190f35b34801561043157600080fd5b5061034f600160a060020a0360043516610a5f565b34801561045257600080fd5b5061034f6106a4565b34801561046757600080fd5b5061034f600160a060020a0360043516602435610a74565b34801561048b57600080fd5b50610378600160a060020a0360043516610b64565b3480156104ac57600080fd5b506104b8600435610b7f565b6040805192835260208301919091528051918290030190f35b3480156104dd57600080fd5b506102b6610bab565b3480156104f257600080fd5b50610378610c06565b34801561050757600080fd5b50610378610c0c565b34801561051c57600080fd5b50610378600435610702565b34801561053457600080fd5b5061034f600160a060020a0360043516602435610c12565b34801561055857600080fd5b50610572600160a060020a03600435166024351515610cf3565b005b34801561058057600080fd5b50610378610d4c565b34801561059557600080fd5b50610378610d52565b3480156105aa57600080fd5b506040805160a435600481810135602081810285810182019096528185526105729583359560248035966044359660643596608435963696929560c49590940192829185019084908082843750506040805187358901803560208181028481018201909552818452989b9a998901989297509082019550935083925085019084908082843750949750505050913515159250610d58915050565b34801561065057600080fd5b5061034f600160a060020a0360043516602435610e7a565b34801561067457600080fd5b50610378600160a060020a0360043581169060243516610f13565b34801561069b57600080fd5b50610378610f3e565b60006008544210156106b8575060006106e5565b600954600854014211156106ce575060006106e5565b600a54600754106106e1575060006106e5565b5060015b90565b6000828201838110156106f757fe5b8091505b5092915050565b600080600061071c600c5485610f4490919063ffffffff16565b9150600090505b600d548110156107b357600d80548290811061073b57fe5b906000526020600020906002020160000154610e100260085401421115156107ab576107a46064610798600d8481548110151561077457fe5b90600052602060002090600202016001015460640185610f4490919063ffffffff16565b9063ffffffff610f6f16565b92506107b7565b600101610723565b8192505b5050919050565b6000828211156107ca57fe5b50900390565b6003805460408051602060026001851615610100026000190190941693909304601f810184900484028201840190925281815292918301828280156108565780601f1061082b57610100808354040283529160200191610856565b820191906000526020600020905b81548152906001019060200180831161083957829003601f168201915b505050505081565b336000818152600260209081526040808320600160a060020a038716808552908352818420869055815186815291519394909390927f8c5be1e5ebec7d5bd14f71427d1e84f3dd0314c0f7b2291e5b200ac8c7c3b925928290030190a350600192915050565b60065481565b601054600160a060020a031681565b600a5481565b6000600160a060020a03831615156108f657600080fd5b600160a060020a03841660009081526020819052604090205482111561091b57600080fd5b600160a060020a038416600090815260026020908152604080832033845290915290205482111561094b57600080fd5b600160a060020a038416600090815260208190526040902054610974908363ffffffff6107be16565b600160a060020a0380861660009081526020819052604080822093909355908516815220546109a9908363ffffffff6106e816565b600160a060020a038085166000908152602081815260408083209490945591871681526002825282812033825290915220546109eb908363ffffffff6107be16565b600160a060020a03808616600081815260026020908152604080832033845282529182902094909455805186815290519287169391927fddf252ad1be2c89b69c2b068fc378daa952ba7f163c4a11628f55a4df523b3ef929181900390910190a35060019392505050565b60055460ff1681565b600f6020526000908152604090205460ff1681565b336000908152600260209081526040808320600160a060020a038616845290915281205480831115610ac957336000908152600260209081526040808320600160a060020a0388168452909152812055610afe565b610ad9818463ffffffff6107be16565b336000908152600260209081526040808320600160a060020a03891684529091529020555b336000818152600260209081526040808320600160a060020a0389168085529083529281902054815190815290519293927f8c5be1e5ebec7d5bd14f71427d1e84f3dd0314c0f7b2291e5b200ac8c7c3b925929181900390910190a35060019392505050565b600160a060020a031660009081526020819052604090205490565b600d805482908110610b8d57fe5b60009182526020909120600290910201805460019091015490915082565b6004805460408051602060026001851615610100026000190190941693909304601f810184900484028201840190925281815292918301828280156108565780601f1061082b57610100808354040283529160200191610856565b60095481565b600b5481565b6000600160a060020a0383161515610c2957600080fd5b33600090815260208190526040902054821115610c4557600080fd5b33600090815260208190526040902054610c65908363ffffffff6107be16565b3360009081526020819052604080822092909255600160a060020a03851681522054610c97908363ffffffff6106e816565b600160a060020a038416600081815260208181526040918290209390935580518581529051919233927fddf252ad1be2c89b69c2b068fc378daa952ba7f163c4a11628f55a4df523b3ef9281900390910190a350600192915050565b601054600160a060020a0316331480610d165750601154600160a060020a031633145b1515610d2157600080fd5b600160a060020a03919091166000908152600f60205260409020805460ff1916911515919091179055565b600c5481565b60075481565b601054600090600160a060020a0316331480610d7e5750601154600160a060020a031633145b1515610d8957600080fd5b610d916106a4565b15610d9857fe5b8351835114610da357fe5b60088990556009889055600c879055600a869055600b8590556000610dc9600d82610f86565b50600090505b8351811015610e5a5760408051908101604052808583815181101515610df157fe5b9060200190602002015181526020018483815181101515610e0e57fe5b602090810290910101519052600d8054610e2b8260018301610f86565b81548110610e3557fe5b6000918252602091829020835160029092020190815591015160019182015501610dcf565b50600e805460ff1916911515919091179055505060006007555050505050565b336000908152600260209081526040808320600160a060020a0386168452909152812054610eae908363ffffffff6106e816565b336000818152600260209081526040808320600160a060020a0389168085529083529281902085905580519485525191937f8c5be1e5ebec7d5bd14f71427d1e84f3dd0314c0f7b2291e5b200ac8c7c3b925929081900390910190a350600192915050565b600160a060020a03918216600090815260026020908152604080832093909416825291909152205490565b60085481565b600080831515610f5757600091506106fb565b50828202828482811515610f6757fe5b04146106f757fe5b6000808284811515610f7d57fe5b04949350505050565b815481835581811115610fb257600202816002028360005260206000209182019101610fb29190610fb7565b505050565b6106e591905b80821115610fd75760008082556001820155600201610fbd565b50905600a165627a7a7230582064b224fd95f4a4d0f5ddbb5b03f3f62af56666c4121a5f8bf4449a73092f3c7c0029",
  "source": "pragma solidity ^0.4.25;\n\nimport 'zeppelin-solidity/contracts/token/ERC20/StandardToken.sol';\n\ncontract BoostoToken is StandardToken {\n    using SafeMath for uint256;\n\n    struct HourlyReward{\n        uint passedHours;\n        uint percent;\n    }\n\n    string public name = \"Boosto\";\n    string public symbol = \"BST\";\n    uint8 public decimals = 18;\n\n    // 1B total supply\n    uint256 public totalSupply = 1000000000 * (uint256(10) ** decimals);\n    \n    uint256 public totalRaised; // total ether raised (in wei)\n\n    uint256 public startTimestamp; // timestamp after which ICO will start\n    \n    // 1 month = 1 * 30 * 24 * 60 * 60\n    uint256 public durationSeconds;\n\n    // the ICO ether max cap (in wei)\n    uint256 public maxCap;\n\n    \n     // Minimum Transaction Amount(0.1 ETH)\n    uint256 public minAmount = 0.1 ether;\n\n    // 1 ETH = X BST\n    uint256 public coinsPerETH = 1000;\n\n    /**\n     * hourlyRewards[hours from start timestamp] = percent\n     * for example hourlyRewards[10] = 20 -- 20% more coins for first 10 hoours after ICO start\n     */\n    HourlyReward[] public hourlyRewards;\n\n    /**\n     * if true, everyone can participate in ICOs.\n     * otherwise just whitelisted wallets can participate\n     */\n    bool isPublic = false;\n\n    /**\n     * mapping to save whitelisted users\n     */\n    mapping(address => bool) public whiteList;\n    \n    /**\n     * Address which will receive raised funds \n     * and owns the total supply of tokens\n     */\n    address public fundsWallet = 0x776EFa46B4b39Aa6bd2D65ce01480B31042aeAA5;\n\n    /**\n     * Address which will manage whitelist\n     * and ICOs\n     */\n    address private adminWallet = 0xc6BD816331B1BddC7C03aB51215bbb9e2BE62dD2;    \n\n    /**\n     * @dev Constructor\n     */\n    constructor() public{\n        //fundsWallet = msg.sender;\n\n        startTimestamp = now;\n\n        // ICO is not active by default. Admin can set it later\n        durationSeconds = 0;\n\n        //initially assign all tokens to the fundsWallet\n        balances[fundsWallet] = totalSupply;\n        Transfer(0x0, fundsWallet, totalSupply);\n    }\n\n    /**\n     * @dev Checks if an ICO is open\n     */\n    modifier isIcoOpen() {\n        require(isIcoInProgress());\n        _;\n    }\n\n    /**\n     * @dev Checks if the investment amount is greater than min amount\n     */\n    modifier checkMin(){\n        require(msg.value >= minAmount);\n        _;\n    }\n\n    /**\n     * @dev Checks if msg.sender can participate in the ICO\n     */\n    modifier isWhiteListed(){\n        require(isPublic || whiteList[msg.sender]);\n        _;\n    }\n\n    /**\n     * @dev Checks if msg.sender is admin\n     * both fundsWallet and adminWallet are considered as admin\n     */\n\n    modifier isAdmin(){\n        require(msg.sender == fundsWallet || msg.sender == adminWallet);\n        _;\n    }\n\n    /**\n     * @dev Payable fallback. This function will be called\n     * when investors send ETH to buy BST\n     */\n    function() public isIcoOpen checkMin isWhiteListed payable{\n        totalRaised = totalRaised.add(msg.value);\n\n        uint256 tokenAmount = calculateTokenAmount(msg.value);\n        balances[fundsWallet] = balances[fundsWallet].sub(tokenAmount);\n        balances[msg.sender] = balances[msg.sender].add(tokenAmount);\n\n        Transfer(fundsWallet, msg.sender, tokenAmount);\n\n        // immediately transfer ether to fundsWallet\n        fundsWallet.transfer(msg.value);\n    }\n\n    /**\n     * @dev Calculates token amount for investors based on weekly rewards\n     * and msg.value\n     * @param weiAmount ETH amount in wei amount\n     * @return Total BST amount\n     */\n    function calculateTokenAmount(uint256 weiAmount) public constant returns(uint256) {\n        uint256 tokenAmount = weiAmount.mul(coinsPerETH);\n        // setting rewards is possible only for 4 weeks\n        for (uint i = 0; i < hourlyRewards.length; i++) {\n            if (now <= startTimestamp + (hourlyRewards[i].passedHours * 1 hours)) {\n                return tokenAmount.mul(100+hourlyRewards[i].percent).div(100);    \n            }\n        }\n        return tokenAmount;\n    }\n\n    /**\n     * @dev Update WhiteList for an address\n     * @param _address The address\n     * @param _value Boolean to represent the status\n     */\n    function adminUpdateWhiteList(address _address, bool _value) public isAdmin{\n        whiteList[_address] = _value;\n    }\n\n\n    /**\n     * @dev Allows admin to launch a new ICO\n     * @param _startTimestamp Start timestamp in epochs\n     * @param _durationSeconds ICO time in seconds(1 day=24*60*60)\n     * @param _coinsPerETH BST price in ETH(1 ETH = ? BST)\n     * @param _maxCap Max ETH capture in wei amount\n     * @param _minAmount Min ETH amount per user in wei amount\n     * @param _isPublic Boolean to represent that the ICO is public or not\n     */\n    function adminAddICO(\n        uint256 _startTimestamp,\n        uint256 _durationSeconds, \n        uint256 _coinsPerETH,\n        uint256 _maxCap,\n        uint256 _minAmount, \n        uint[] _rewardHours,\n        uint256[] _rewardPercents,\n        bool _isPublic\n        ) public isAdmin{\n\n        // we can't add a new ICO when an ICO is already in progress\n        assert(!isIcoInProgress());\n        assert(_rewardPercents.length == _rewardHours.length);\n\n        startTimestamp = _startTimestamp;\n        durationSeconds = _durationSeconds;\n        coinsPerETH = _coinsPerETH;\n        maxCap = _maxCap;\n        minAmount = _minAmount;\n\n        hourlyRewards.length = 0;\n        for(uint i=0; i < _rewardHours.length; i++){\n            hourlyRewards[hourlyRewards.length++] = HourlyReward({\n                    passedHours: _rewardHours[i],\n                    percent: _rewardPercents[i]\n                });\n        }\n\n        isPublic = _isPublic;\n        // reset totalRaised\n        totalRaised = 0;\n    }\n\n    /**\n     * @dev Return true if an ICO is already in progress;\n     * otherwise returns false\n     */\n    function isIcoInProgress() public constant returns(bool){\n        if(now < startTimestamp){\n            return false;\n        }\n        if(now > (startTimestamp + durationSeconds)){\n            return false;\n        }\n        if(totalRaised >= maxCap){\n            return false;\n        }\n        return true;\n    }\n}\n",
  "sourcePath": "/home/projects/BOOSTOToken/contracts/BoostoToken.sol",
  "compiler": {
    "name": "solc",
    "version": "0.4.25+commit.59dbf8f1.Emscripten.clang"
  },
  "schemaVersion": "2.0.1",
  "updatedAt": "2018-09-20T04:21:05.950Z"
}