{
  "contractName": "BoostoResellerFactory",
  "abi": [
    {
      "anonymous": false,
      "inputs": [
        {
          "indexed": false,
          "name": "creator",
          "type": "address"
        },
        {
          "indexed": false,
          "name": "pool",
          "type": "address"
        }
      ],
      "name": "NewPool",
      "type": "event"
    },
    {
      "constant": false,
      "inputs": [
        {
          "name": "_minPerUser",
          "type": "uint256"
        },
        {
          "name": "_maxPerUser",
          "type": "uint256"
        },
        {
          "name": "_BSTPerETH",
          "type": "uint256"
        },
        {
          "name": "_fundsWallet",
          "type": "address"
        },
        {
          "name": "_operatorWallet",
          "type": "address"
        }
      ],
      "name": "createNew",
      "outputs": [
        {
          "name": "created",
          "type": "address"
        }
      ],
      "payable": false,
      "stateMutability": "nonpayable",
      "type": "function"
    }
  ],
  "bytecode": "0x608060405234801561001057600080fd5b50610646806100206000396000f3006080604052600436106100405763ffffffff7c0100000000000000000000000000000000000000000000000000000000600035041663b6b08b418114610045575b600080fd5b34801561005157600080fd5b5061008260043560243560443573ffffffffffffffffffffffffffffffffffffffff606435811690608435166100ab565b6040805173ffffffffffffffffffffffffffffffffffffffff9092168252519081900360200190f35b60008086868686866100bb610171565b948552602085019390935260408085019290925273ffffffffffffffffffffffffffffffffffffffff9081166060850152919091166080830152519081900360a001906000f080158015610113573d6000803e3d6000fd5b506040805133815273ffffffffffffffffffffffffffffffffffffffff8316602082015281519293507f77948cb83ef3caff9ac13dfab1ea1f8a6875c98370287ce587f5dbc74cc5b6b0929081900390910190a19695505050505050565b60405161049980610182833901905600608060405260008054600160a060020a031916737e3d9bf69d24862a699343429843ed93a22beab217905534801561003657600080fd5b5060405160a0806104998339810160409081528151602083015191830151606084015160809094015160039290925560049290925560059190915560018054600160a060020a03938416600160a060020a031991821617909155600280549390921692169190911790556103ea806100af6000396000f3006080604052600436106100405763ffffffff7c0100000000000000000000000000000000000000000000000000000000600035041663f18d20be811461021b575b60035460009034101561005257600080fd5b60045434111561006157600080fd5b60008054604080517f70a082310000000000000000000000000000000000000000000000000000000081523060048201529051600160a060020a03909216929183916370a0823191602480830192602092919082900301818787803b1580156100c957600080fd5b505af11580156100dd573d6000803e3d6000fd5b505050506040513d60208110156100f357600080fd5b505160055490915061010c90349063ffffffff61023216565b811161011757600080fd5b600154604051600160a060020a03909116903480156108fc02916000818181858888f19350505050158015610150573d6000803e3d6000fd5b50600054600554600160a060020a039091169350839063a9059cbb90339061017f90349063ffffffff61023216565b6040518363ffffffff167c01000000000000000000000000000000000000000000000000000000000281526004018083600160a060020a0316600160a060020a0316815260200182815260200192505050602060405180830381600087803b1580156101ea57600080fd5b505af11580156101fe573d6000803e3d6000fd5b505050506040513d602081101561021457600080fd5b5050505050005b34801561022757600080fd5b50610230610268565b005b6000808315156102455760009150610261565b5082820282848281151561025557fe5b041461025d57fe5b8091505b5092915050565b6002546000908190600160a060020a0316331461028457600080fd5b60008054604080517f70a082310000000000000000000000000000000000000000000000000000000081523060048201529051600160a060020a03909216945084926370a08231926024808401936020939083900390910190829087803b1580156102ee57600080fd5b505af1158015610302573d6000803e3d6000fd5b505050506040513d602081101561031857600080fd5b5051905060008111156103ba57604080517fa9059cbb000000000000000000000000000000000000000000000000000000008152336004820152602481018390529051600160a060020a0384169163a9059cbb9160448083019260209291908290030181600087803b15801561038d57600080fd5b505af11580156103a1573d6000803e3d6000fd5b505050506040513d60208110156103b757600080fd5b50505b50505600a165627a7a7230582031ae12e057a6456bb96ef021072940251e14646ab972640bc998884c48ac41f20029a165627a7a723058204bc8d336ffdbaa435580fe8b5cf542cd92dd5072f7509b9b1c816b17caa8b0940029",
  "source": "pragma solidity ^0.4.25;\n\nimport 'contracts/BoostoReseller.sol';\n\n\ncontract BoostoResellerFactory {\n\n    event NewPool(address creator, address pool);\n\n    function createNew(\n        uint256 _minPerUser,\n        uint256 _maxPerUser,\n        uint256 _BSTPerETH,\n        address _fundsWallet,\n        address _operatorWallet\n    ) public returns(address created){\n        address ret = new BoostoReseller(\n            _minPerUser,\n            _maxPerUser,\n            _BSTPerETH,\n            _fundsWallet,\n            _operatorWallet\n        );\n        emit NewPool(msg.sender, ret);\n        return ret;\n    }\n}\n",
  "sourcePath": "/home/projects/BOOSTOToken/contracts/BoostoResellerFactory.sol",
  "compiler": {
    "name": "solc",
    "version": "0.4.25+commit.59dbf8f1.Emscripten.clang"
  },
  "schemaVersion": "2.0.1",
  "updatedAt": "2018-11-26T20:08:38.491Z"
}