{
  "contractName": "BoostoToken",
  "abi": [
    {
      "constant": true,
      "inputs": [],
      "name": "name",
      "outputs": [
        {
          "name": "",
          "type": "string"
        }
      ],
      "payable": false,
      "stateMutability": "view",
      "type": "function"
    },
    {
      "constant": false,
      "inputs": [
        {
          "name": "_spender",
          "type": "address"
        },
        {
          "name": "_value",
          "type": "uint256"
        }
      ],
      "name": "approve",
      "outputs": [
        {
          "name": "",
          "type": "bool"
        }
      ],
      "payable": false,
      "stateMutability": "nonpayable",
      "type": "function"
    },
    {
      "constant": true,
      "inputs": [],
      "name": "totalSupply",
      "outputs": [
        {
          "name": "",
          "type": "uint256"
        }
      ],
      "payable": false,
      "stateMutability": "view",
      "type": "function"
    },
    {
      "constant": true,
      "inputs": [],
      "name": "fundsWallet",
      "outputs": [
        {
          "name": "",
          "type": "address"
        }
      ],
      "payable": false,
      "stateMutability": "view",
      "type": "function"
    },
    {
      "constant": true,
      "inputs": [],
      "name": "maxCap",
      "outputs": [
        {
          "name": "",
          "type": "uint256"
        }
      ],
      "payable": false,
      "stateMutability": "view",
      "type": "function"
    },
    {
      "constant": false,
      "inputs": [
        {
          "name": "_from",
          "type": "address"
        },
        {
          "name": "_to",
          "type": "address"
        },
        {
          "name": "_value",
          "type": "uint256"
        }
      ],
      "name": "transferFrom",
      "outputs": [
        {
          "name": "",
          "type": "bool"
        }
      ],
      "payable": false,
      "stateMutability": "nonpayable",
      "type": "function"
    },
    {
      "constant": true,
      "inputs": [],
      "name": "decimals",
      "outputs": [
        {
          "name": "",
          "type": "uint8"
        }
      ],
      "payable": false,
      "stateMutability": "view",
      "type": "function"
    },
    {
      "constant": true,
      "inputs": [
        {
          "name": "",
          "type": "address"
        }
      ],
      "name": "whiteList",
      "outputs": [
        {
          "name": "",
          "type": "bool"
        }
      ],
      "payable": false,
      "stateMutability": "view",
      "type": "function"
    },
    {
      "constant": false,
      "inputs": [
        {
          "name": "_spender",
          "type": "address"
        },
        {
          "name": "_subtractedValue",
          "type": "uint256"
        }
      ],
      "name": "decreaseApproval",
      "outputs": [
        {
          "name": "",
          "type": "bool"
        }
      ],
      "payable": false,
      "stateMutability": "nonpayable",
      "type": "function"
    },
    {
      "constant": true,
      "inputs": [
        {
          "name": "_owner",
          "type": "address"
        }
      ],
      "name": "balanceOf",
      "outputs": [
        {
          "name": "balance",
          "type": "uint256"
        }
      ],
      "payable": false,
      "stateMutability": "view",
      "type": "function"
    },
    {
      "constant": true,
      "inputs": [
        {
          "name": "",
          "type": "uint256"
        }
      ],
      "name": "hourlyRewards",
      "outputs": [
        {
          "name": "passedHours",
          "type": "uint256"
        },
        {
          "name": "percent",
          "type": "uint256"
        }
      ],
      "payable": false,
      "stateMutability": "view",
      "type": "function"
    },
    {
      "constant": true,
      "inputs": [],
      "name": "symbol",
      "outputs": [
        {
          "name": "",
          "type": "string"
        }
      ],
      "payable": false,
      "stateMutability": "view",
      "type": "function"
    },
    {
      "constant": true,
      "inputs": [],
      "name": "durationSeconds",
      "outputs": [
        {
          "name": "",
          "type": "uint256"
        }
      ],
      "payable": false,
      "stateMutability": "view",
      "type": "function"
    },
    {
      "constant": true,
      "inputs": [],
      "name": "minAmount",
      "outputs": [
        {
          "name": "",
          "type": "uint256"
        }
      ],
      "payable": false,
      "stateMutability": "view",
      "type": "function"
    },
    {
      "constant": false,
      "inputs": [
        {
          "name": "_to",
          "type": "address"
        },
        {
          "name": "_value",
          "type": "uint256"
        }
      ],
      "name": "transfer",
      "outputs": [
        {
          "name": "",
          "type": "bool"
        }
      ],
      "payable": false,
      "stateMutability": "nonpayable",
      "type": "function"
    },
    {
      "constant": true,
      "inputs": [],
      "name": "coinsPerETH",
      "outputs": [
        {
          "name": "",
          "type": "uint256"
        }
      ],
      "payable": false,
      "stateMutability": "view",
      "type": "function"
    },
    {
      "constant": true,
      "inputs": [],
      "name": "totalRaised",
      "outputs": [
        {
          "name": "",
          "type": "uint256"
        }
      ],
      "payable": false,
      "stateMutability": "view",
      "type": "function"
    },
    {
      "constant": false,
      "inputs": [
        {
          "name": "_spender",
          "type": "address"
        },
        {
          "name": "_addedValue",
          "type": "uint256"
        }
      ],
      "name": "increaseApproval",
      "outputs": [
        {
          "name": "",
          "type": "bool"
        }
      ],
      "payable": false,
      "stateMutability": "nonpayable",
      "type": "function"
    },
    {
      "constant": true,
      "inputs": [
        {
          "name": "_owner",
          "type": "address"
        },
        {
          "name": "_spender",
          "type": "address"
        }
      ],
      "name": "allowance",
      "outputs": [
        {
          "name": "",
          "type": "uint256"
        }
      ],
      "payable": false,
      "stateMutability": "view",
      "type": "function"
    },
    {
      "constant": true,
      "inputs": [],
      "name": "startTimestamp",
      "outputs": [
        {
          "name": "",
          "type": "uint256"
        }
      ],
      "payable": false,
      "stateMutability": "view",
      "type": "function"
    },
    {
      "inputs": [],
      "payable": false,
      "stateMutability": "nonpayable",
      "type": "constructor"
    },
    {
      "payable": true,
      "stateMutability": "payable",
      "type": "fallback"
    },
    {
      "anonymous": false,
      "inputs": [
        {
          "indexed": true,
          "name": "owner",
          "type": "address"
        },
        {
          "indexed": true,
          "name": "spender",
          "type": "address"
        },
        {
          "indexed": false,
          "name": "value",
          "type": "uint256"
        }
      ],
      "name": "Approval",
      "type": "event"
    },
    {
      "anonymous": false,
      "inputs": [
        {
          "indexed": true,
          "name": "from",
          "type": "address"
        },
        {
          "indexed": true,
          "name": "to",
          "type": "address"
        },
        {
          "indexed": false,
          "name": "value",
          "type": "uint256"
        }
      ],
      "name": "Transfer",
      "type": "event"
    },
    {
      "constant": true,
      "inputs": [
        {
          "name": "weiAmount",
          "type": "uint256"
        }
      ],
      "name": "calculateTokenAmount",
      "outputs": [
        {
          "name": "",
          "type": "uint256"
        }
      ],
      "payable": false,
      "stateMutability": "view",
      "type": "function"
    },
    {
      "constant": false,
      "inputs": [
        {
          "name": "_address",
          "type": "address"
        },
        {
          "name": "_value",
          "type": "bool"
        }
      ],
      "name": "adminUpdateWhiteList",
      "outputs": [],
      "payable": false,
      "stateMutability": "nonpayable",
      "type": "function"
    },
    {
      "constant": false,
      "inputs": [
        {
          "name": "_startTimestamp",
          "type": "uint256"
        },
        {
          "name": "_durationSeconds",
          "type": "uint256"
        },
        {
          "name": "_coinsPerETH",
          "type": "uint256"
        },
        {
          "name": "_maxCap",
          "type": "uint256"
        },
        {
          "name": "_minAmount",
          "type": "uint256"
        },
        {
          "name": "_rewardHours",
          "type": "uint256[]"
        },
        {
          "name": "_rewardPercents",
          "type": "uint256[]"
        },
        {
          "name": "_isPublic",
          "type": "bool"
        }
      ],
      "name": "adminAddICO",
      "outputs": [],
      "payable": false,
      "stateMutability": "nonpayable",
      "type": "function"
    },
    {
      "constant": true,
      "inputs": [],
      "name": "isIcoInProgress",
      "outputs": [
        {
          "name": "",
          "type": "bool"
        }
      ],
      "payable": false,
      "stateMutability": "view",
      "type": "function"
    },
    {
      "constant": true,
      "inputs": [],
      "name": "isIcoInProgress2",
      "outputs": [
        {
          "name": "",
          "type": "uint256"
        }
      ],
      "payable": false,
      "stateMutability": "view",
      "type": "function"
    }
  ],
  "bytecode": "0x60806040526040805190810160405280600681526020017f426f6f73746f000000000000000000000000000000000000000000000000000081525060039080519060200190620000519291906200029c565b506040805190810160405280600381526020017f4253540000000000000000000000000000000000000000000000000000000000815250600490805190602001906200009f9291906200029c565b506012600560006101000a81548160ff021916908360ff160217905550600560009054906101000a900460ff1660ff16600a0a633b9aca000260065567016345785d8a0000600b556103e8600c556000600e60006101000a81548160ff021916908315150217905550732c2353f9bc1a122a83e8b7a662289136e6288395601160006101000a81548173ffffffffffffffffffffffffffffffffffffffff021916908373ffffffffffffffffffffffffffffffffffffffff1602179055503480156200016a57600080fd5b5033601060006101000a81548173ffffffffffffffffffffffffffffffffffffffff021916908373ffffffffffffffffffffffffffffffffffffffff160217905550426008819055506000600981905550600654600080601060009054906101000a900473ffffffffffffffffffffffffffffffffffffffff1673ffffffffffffffffffffffffffffffffffffffff1673ffffffffffffffffffffffffffffffffffffffff16815260200190815260200160002081905550601060009054906101000a900473ffffffffffffffffffffffffffffffffffffffff1673ffffffffffffffffffffffffffffffffffffffff1660007fddf252ad1be2c89b69c2b068fc378daa952ba7f163c4a11628f55a4df523b3ef6006546040518082815260200191505060405180910390a36200034b565b828054600181600116156101000203166002900490600052602060002090601f016020900481019282601f10620002df57805160ff191683800117855562000310565b8280016001018555821562000310579182015b828111156200030f578251825591602001919060010190620002f2565b5b5090506200031f919062000323565b5090565b6200034891905b80821115620003445760008160009055506001016200032a565b5090565b90565b612006806200035b6000396000f300608060405260043610610149576000357c0100000000000000000000000000000000000000000000000000000000900463ffffffff16806306fdde0314610461578063095ea7b3146104f157806318160ddd146105565780632194f3a21461058157806323548b8b146105d857806323b872dd14610603578063313ce56714610688578063372c12b1146106b957806357cdd07814610714578063661884631461074357806370a08231146107a8578063848f81ea146107ff57806395d89b41146108475780639acba2af146108d75780639b2cb5d814610902578063a24bcf461461092d578063a9059cbb1461096e578063b2747064146109d3578063bceef6a714610a22578063c5c4744c14610a4d578063d25f08b114610a78578063d73dd62314610b5f578063dd62ed3e14610bc4578063e6fd48bc14610c3b578063f0179db314610c66575b6000610153610c91565b151561015e57600080fd5b600b54341015151561016f57600080fd5b600e60009054906101000a900460ff16806101d35750600f60003373ffffffffffffffffffffffffffffffffffffffff1673ffffffffffffffffffffffffffffffffffffffff16815260200190815260200160002060009054906101000a900460ff165b15156101de57600080fd5b6101f334600754610cdb90919063ffffffff16565b60078190555061020234610cf9565b905061027781600080601060009054906101000a900473ffffffffffffffffffffffffffffffffffffffff1673ffffffffffffffffffffffffffffffffffffffff1673ffffffffffffffffffffffffffffffffffffffff16815260200190815260200160002054610dc090919063ffffffff16565b600080601060009054906101000a900473ffffffffffffffffffffffffffffffffffffffff1673ffffffffffffffffffffffffffffffffffffffff1673ffffffffffffffffffffffffffffffffffffffff1681526020019081526020016000208190555061032c816000803373ffffffffffffffffffffffffffffffffffffffff1673ffffffffffffffffffffffffffffffffffffffff16815260200190815260200160002054610cdb90919063ffffffff16565b6000803373ffffffffffffffffffffffffffffffffffffffff1673ffffffffffffffffffffffffffffffffffffffff168152602001908152602001600020819055503373ffffffffffffffffffffffffffffffffffffffff16601060009054906101000a900473ffffffffffffffffffffffffffffffffffffffff1673ffffffffffffffffffffffffffffffffffffffff167fddf252ad1be2c89b69c2b068fc378daa952ba7f163c4a11628f55a4df523b3ef836040518082815260200191505060405180910390a3601060009054906101000a900473ffffffffffffffffffffffffffffffffffffffff1673ffffffffffffffffffffffffffffffffffffffff166108fc349081150290604051600060405180830381858888f1935050505015801561045d573d6000803e3d6000fd5b5050005b34801561046d57600080fd5b50610476610dd9565b6040518080602001828103825283818151815260200191508051906020019080838360005b838110156104b657808201518184015260208101905061049b565b50505050905090810190601f1680156104e35780820380516001836020036101000a031916815260200191505b509250505060405180910390f35b3480156104fd57600080fd5b5061053c600480360381019080803573ffffffffffffffffffffffffffffffffffffffff16906020019092919080359060200190929190505050610e77565b604051808215151515815260200191505060405180910390f35b34801561056257600080fd5b5061056b610f69565b6040518082815260200191505060405180910390f35b34801561058d57600080fd5b50610596610f6f565b604051808273ffffffffffffffffffffffffffffffffffffffff1673ffffffffffffffffffffffffffffffffffffffff16815260200191505060405180910390f35b3480156105e457600080fd5b506105ed610f95565b6040518082815260200191505060405180910390f35b34801561060f57600080fd5b5061066e600480360381019080803573ffffffffffffffffffffffffffffffffffffffff169060200190929190803573ffffffffffffffffffffffffffffffffffffffff16906020019092919080359060200190929190505050610f9b565b604051808215151515815260200191505060405180910390f35b34801561069457600080fd5b5061069d611355565b604051808260ff1660ff16815260200191505060405180910390f35b3480156106c557600080fd5b506106fa600480360381019080803573ffffffffffffffffffffffffffffffffffffffff169060200190929190505050611368565b604051808215151515815260200191505060405180910390f35b34801561072057600080fd5b50610729610c91565b604051808215151515815260200191505060405180910390f35b34801561074f57600080fd5b5061078e600480360381019080803573ffffffffffffffffffffffffffffffffffffffff16906020019092919080359060200190929190505050611388565b604051808215151515815260200191505060405180910390f35b3480156107b457600080fd5b506107e9600480360381019080803573ffffffffffffffffffffffffffffffffffffffff169060200190929190505050611619565b6040518082815260200191505060405180910390f35b34801561080b57600080fd5b5061082a60048036038101908080359060200190929190505050611661565b604051808381526020018281526020019250505060405180910390f35b34801561085357600080fd5b5061085c611694565b6040518080602001828103825283818151815260200191508051906020019080838360005b8381101561089c578082015181840152602081019050610881565b50505050905090810190601f1680156108c95780820380516001836020036101000a031916815260200191505b509250505060405180910390f35b3480156108e357600080fd5b506108ec611732565b6040518082815260200191505060405180910390f35b34801561090e57600080fd5b50610917611738565b6040518082815260200191505060405180910390f35b34801561093957600080fd5b5061095860048036038101908080359060200190929190505050610cf9565b6040518082815260200191505060405180910390f35b34801561097a57600080fd5b506109b9600480360381019080803573ffffffffffffffffffffffffffffffffffffffff1690602001909291908035906020019092919050505061173e565b604051808215151515815260200191505060405180910390f35b3480156109df57600080fd5b50610a20600480360381019080803573ffffffffffffffffffffffffffffffffffffffff16906020019092919080351515906020019092919050505061195d565b005b348015610a2e57600080fd5b50610a37611a6c565b6040518082815260200191505060405180910390f35b348015610a5957600080fd5b50610a62611a72565b6040518082815260200191505060405180910390f35b348015610a8457600080fd5b50610b5d60048036038101908080359060200190929190803590602001909291908035906020019092919080359060200190929190803590602001909291908035906020019082018035906020019080806020026020016040519081016040528093929190818152602001838360200280828437820191505050505050919291929080359060200190820180359060200190808060200260200160405190810160405280939291908181526020018383602002808284378201915050505050509192919290803515159060200190929190505050611a78565b005b348015610b6b57600080fd5b50610baa600480360381019080803573ffffffffffffffffffffffffffffffffffffffff16906020019092919080359060200190929190505050611c50565b604051808215151515815260200191505060405180910390f35b348015610bd057600080fd5b50610c25600480360381019080803573ffffffffffffffffffffffffffffffffffffffff169060200190929190803573ffffffffffffffffffffffffffffffffffffffff169060200190929190505050611e4c565b6040518082815260200191505060405180910390f35b348015610c4757600080fd5b50610c50611ed3565b6040518082815260200191505060405180910390f35b348015610c7257600080fd5b50610c7b611ed9565b6040518082815260200191505060405180910390f35b6000600854421015610ca65760009050610cd8565b60095460085401421115610cbd5760009050610cd8565b600a54600754101515610cd35760009050610cd8565b600190505b90565b6000808284019050838110151515610cef57fe5b8091505092915050565b6000806000610d13600c5485611f2390919063ffffffff16565b9150600090505b600d80549050811015610db557610e10600d82815481101515610d3957fe5b906000526020600020906002020160000154026008540142111515610da857610da16064610d93600d84815481101515610d6f57fe5b90600052602060002090600202016001015460640185611f2390919063ffffffff16565b611f5e90919063ffffffff16565b9250610db9565b8080600101915050610d1a565b8192505b5050919050565b6000828211151515610dce57fe5b818303905092915050565b60038054600181600116156101000203166002900480601f016020809104026020016040519081016040528092919081815260200182805460018160011615610100020316600290048015610e6f5780601f10610e4457610100808354040283529160200191610e6f565b820191906000526020600020905b815481529060010190602001808311610e5257829003601f168201915b505050505081565b600081600260003373ffffffffffffffffffffffffffffffffffffffff1673ffffffffffffffffffffffffffffffffffffffff16815260200190815260200160002060008573ffffffffffffffffffffffffffffffffffffffff1673ffffffffffffffffffffffffffffffffffffffff168152602001908152602001600020819055508273ffffffffffffffffffffffffffffffffffffffff163373ffffffffffffffffffffffffffffffffffffffff167f8c5be1e5ebec7d5bd14f71427d1e84f3dd0314c0f7b2291e5b200ac8c7c3b925846040518082815260200191505060405180910390a36001905092915050565b60065481565b601060009054906101000a900473ffffffffffffffffffffffffffffffffffffffff1681565b600a5481565b60008073ffffffffffffffffffffffffffffffffffffffff168373ffffffffffffffffffffffffffffffffffffffff1614151515610fd857600080fd5b6000808573ffffffffffffffffffffffffffffffffffffffff1673ffffffffffffffffffffffffffffffffffffffff16815260200190815260200160002054821115151561102557600080fd5b600260008573ffffffffffffffffffffffffffffffffffffffff1673ffffffffffffffffffffffffffffffffffffffff16815260200190815260200160002060003373ffffffffffffffffffffffffffffffffffffffff1673ffffffffffffffffffffffffffffffffffffffff1681526020019081526020016000205482111515156110b057600080fd5b611101826000808773ffffffffffffffffffffffffffffffffffffffff1673ffffffffffffffffffffffffffffffffffffffff16815260200190815260200160002054610dc090919063ffffffff16565b6000808673ffffffffffffffffffffffffffffffffffffffff1673ffffffffffffffffffffffffffffffffffffffff16815260200190815260200160002081905550611194826000808673ffffffffffffffffffffffffffffffffffffffff1673ffffffffffffffffffffffffffffffffffffffff16815260200190815260200160002054610cdb90919063ffffffff16565b6000808573ffffffffffffffffffffffffffffffffffffffff1673ffffffffffffffffffffffffffffffffffffffff1681526020019081526020016000208190555061126582600260008773ffffffffffffffffffffffffffffffffffffffff1673ffffffffffffffffffffffffffffffffffffffff16815260200190815260200160002060003373ffffffffffffffffffffffffffffffffffffffff1673ffffffffffffffffffffffffffffffffffffffff16815260200190815260200160002054610dc090919063ffffffff16565b600260008673ffffffffffffffffffffffffffffffffffffffff1673ffffffffffffffffffffffffffffffffffffffff16815260200190815260200160002060003373ffffffffffffffffffffffffffffffffffffffff1673ffffffffffffffffffffffffffffffffffffffff168152602001908152602001600020819055508273ffffffffffffffffffffffffffffffffffffffff168473ffffffffffffffffffffffffffffffffffffffff167fddf252ad1be2c89b69c2b068fc378daa952ba7f163c4a11628f55a4df523b3ef846040518082815260200191505060405180910390a3600190509392505050565b600560009054906101000a900460ff1681565b600f6020528060005260406000206000915054906101000a900460ff1681565b600080600260003373ffffffffffffffffffffffffffffffffffffffff1673ffffffffffffffffffffffffffffffffffffffff16815260200190815260200160002060008573ffffffffffffffffffffffffffffffffffffffff1673ffffffffffffffffffffffffffffffffffffffff16815260200190815260200160002054905080831115611499576000600260003373ffffffffffffffffffffffffffffffffffffffff1673ffffffffffffffffffffffffffffffffffffffff16815260200190815260200160002060008673ffffffffffffffffffffffffffffffffffffffff1673ffffffffffffffffffffffffffffffffffffffff1681526020019081526020016000208190555061152d565b6114ac8382610dc090919063ffffffff16565b600260003373ffffffffffffffffffffffffffffffffffffffff1673ffffffffffffffffffffffffffffffffffffffff16815260200190815260200160002060008673ffffffffffffffffffffffffffffffffffffffff1673ffffffffffffffffffffffffffffffffffffffff168152602001908152602001600020819055505b8373ffffffffffffffffffffffffffffffffffffffff163373ffffffffffffffffffffffffffffffffffffffff167f8c5be1e5ebec7d5bd14f71427d1e84f3dd0314c0f7b2291e5b200ac8c7c3b925600260003373ffffffffffffffffffffffffffffffffffffffff1673ffffffffffffffffffffffffffffffffffffffff16815260200190815260200160002060008873ffffffffffffffffffffffffffffffffffffffff1673ffffffffffffffffffffffffffffffffffffffff168152602001908152602001600020546040518082815260200191505060405180910390a3600191505092915050565b60008060008373ffffffffffffffffffffffffffffffffffffffff1673ffffffffffffffffffffffffffffffffffffffff168152602001908152602001600020549050919050565b600d8181548110151561167057fe5b90600052602060002090600202016000915090508060000154908060010154905082565b60048054600181600116156101000203166002900480601f01602080910402602001604051908101604052809291908181526020018280546001816001161561010002031660029004801561172a5780601f106116ff5761010080835404028352916020019161172a565b820191906000526020600020905b81548152906001019060200180831161170d57829003601f168201915b505050505081565b60095481565b600b5481565b60008073ffffffffffffffffffffffffffffffffffffffff168373ffffffffffffffffffffffffffffffffffffffff161415151561177b57600080fd5b6000803373ffffffffffffffffffffffffffffffffffffffff1673ffffffffffffffffffffffffffffffffffffffff1681526020019081526020016000205482111515156117c857600080fd5b611819826000803373ffffffffffffffffffffffffffffffffffffffff1673ffffffffffffffffffffffffffffffffffffffff16815260200190815260200160002054610dc090919063ffffffff16565b6000803373ffffffffffffffffffffffffffffffffffffffff1673ffffffffffffffffffffffffffffffffffffffff168152602001908152602001600020819055506118ac826000808673ffffffffffffffffffffffffffffffffffffffff1673ffffffffffffffffffffffffffffffffffffffff16815260200190815260200160002054610cdb90919063ffffffff16565b6000808573ffffffffffffffffffffffffffffffffffffffff1673ffffffffffffffffffffffffffffffffffffffff168152602001908152602001600020819055508273ffffffffffffffffffffffffffffffffffffffff163373ffffffffffffffffffffffffffffffffffffffff167fddf252ad1be2c89b69c2b068fc378daa952ba7f163c4a11628f55a4df523b3ef846040518082815260200191505060405180910390a36001905092915050565b601060009054906101000a900473ffffffffffffffffffffffffffffffffffffffff1673ffffffffffffffffffffffffffffffffffffffff163373ffffffffffffffffffffffffffffffffffffffff161480611a065750601160009054906101000a900473ffffffffffffffffffffffffffffffffffffffff1673ffffffffffffffffffffffffffffffffffffffff163373ffffffffffffffffffffffffffffffffffffffff16145b1515611a1157600080fd5b80600f60008473ffffffffffffffffffffffffffffffffffffffff1673ffffffffffffffffffffffffffffffffffffffff16815260200190815260200160002060006101000a81548160ff0219169083151502179055505050565b600c5481565b60075481565b6000601060009054906101000a900473ffffffffffffffffffffffffffffffffffffffff1673ffffffffffffffffffffffffffffffffffffffff163373ffffffffffffffffffffffffffffffffffffffff161480611b235750601160009054906101000a900473ffffffffffffffffffffffffffffffffffffffff1673ffffffffffffffffffffffffffffffffffffffff163373ffffffffffffffffffffffffffffffffffffffff16145b1515611b2e57600080fd5b611b36610c91565b151515611b3f57fe5b83518351141515611b4c57fe5b886008819055508760098190555086600c8190555085600a8190555084600b819055506000600d81611b7e9190611f79565b50600090505b8351811015611c235760408051908101604052808583815181101515611ba657fe5b9060200190602002015181526020018483815181101515611bc357fe5b90602001906020020151815250600d808054809190600101611be59190611f79565b815481101515611bf157fe5b906000526020600020906002020160008201518160000155602082015181600101559050508080600101915050611b84565b81600e60006101000a81548160ff0219169083151502179055506000600781905550505050505050505050565b6000611ce182600260003373ffffffffffffffffffffffffffffffffffffffff1673ffffffffffffffffffffffffffffffffffffffff16815260200190815260200160002060008673ffffffffffffffffffffffffffffffffffffffff1673ffffffffffffffffffffffffffffffffffffffff16815260200190815260200160002054610cdb90919063ffffffff16565b600260003373ffffffffffffffffffffffffffffffffffffffff1673ffffffffffffffffffffffffffffffffffffffff16815260200190815260200160002060008573ffffffffffffffffffffffffffffffffffffffff1673ffffffffffffffffffffffffffffffffffffffff168152602001908152602001600020819055508273ffffffffffffffffffffffffffffffffffffffff163373ffffffffffffffffffffffffffffffffffffffff167f8c5be1e5ebec7d5bd14f71427d1e84f3dd0314c0f7b2291e5b200ac8c7c3b925600260003373ffffffffffffffffffffffffffffffffffffffff1673ffffffffffffffffffffffffffffffffffffffff16815260200190815260200160002060008773ffffffffffffffffffffffffffffffffffffffff1673ffffffffffffffffffffffffffffffffffffffff168152602001908152602001600020546040518082815260200191505060405180910390a36001905092915050565b6000600260008473ffffffffffffffffffffffffffffffffffffffff1673ffffffffffffffffffffffffffffffffffffffff16815260200190815260200160002060008373ffffffffffffffffffffffffffffffffffffffff1673ffffffffffffffffffffffffffffffffffffffff16815260200190815260200160002054905092915050565b60085481565b6000600854421015611eee5760019050611f20565b60095460085401421115611f055760029050611f20565b600a54600754101515611f1b5760039050611f20565b600490505b90565b6000806000841415611f385760009150611f57565b8284029050828482811515611f4957fe5b04141515611f5357fe5b8091505b5092915050565b6000808284811515611f6c57fe5b0490508091505092915050565b815481835581811115611fa657600202816002028360005260206000209182019101611fa59190611fab565b5b505050565b611fd791905b80821115611fd357600080820160009055600182016000905550600201611fb1565b5090565b905600a165627a7a7230582076b18f12df9c7829aa0eea0233674bad9c0454ee0e682e0545774e8b6ee05a010029",
  "source": "pragma solidity ^0.4.19;\n\nimport 'zeppelin-solidity/contracts/token/ERC20/StandardToken.sol';\n\ncontract BoostoToken is StandardToken {\n    using SafeMath for uint256;\n\n    struct HourlyReward{\n        uint passedHours;\n        uint percent;\n    }\n\n    string public name = \"Boosto\";\n    string public symbol = \"BST\";\n    uint8 public decimals = 18;\n\n    // 1B total supply\n    uint256 public totalSupply = 1000000000 * (uint256(10) ** decimals);\n    \n    uint256 public totalRaised; // total ether raised (in wei)\n\n    uint256 public startTimestamp; // timestamp after which ICO will start\n    \n    // 1 month = 1 * 30 * 24 * 60 * 60\n    uint256 public durationSeconds;\n\n    // the ICO ether max cap (in wei)\n    uint256 public maxCap;\n\n    \n     // Minimum Transaction Amount(0.1 ETH)\n    uint256 public minAmount = 0.1 ether;\n\n    // 1 ETH = X BST\n    uint256 public coinsPerETH = 1000;\n\n    /**\n     * hourlyRewards[hours from start timestamp] = percent\n     * for example hourlyRewards[10] = 20 -- 20% more coins for first 10 hoours after ICO start\n     */\n    HourlyReward[] public hourlyRewards;\n\n    /**\n     * if true, everyone can participate in ICOs.\n     * otherwise just whitelisted wallets can participate\n     */\n    bool isPublic = false;\n\n    /**\n     * mapping to save whitelisted users\n     */\n    mapping(address => bool) public whiteList;\n    \n    /**\n     * Address which will receive raised funds \n     * and owns the total supply of tokens\n     */\n    address public fundsWallet;\n\n    /**\n     * Address which will manage whitelist\n     * and ICOs\n     */\n    address private adminWallet = 0x2C2353F9bc1A122a83E8B7A662289136E6288395;    \n\n    /**\n     * @dev Constructor\n     */\n    constructor() public{\n        fundsWallet = msg.sender;\n\n        startTimestamp = now;\n\n        // ICO is not active by default. Admin can set it later\n        durationSeconds = 0;\n\n        //initially assign all tokens to the fundsWallet\n        balances[fundsWallet] = totalSupply;\n        Transfer(0x0, fundsWallet, totalSupply);\n    }\n\n    /**\n     * @dev Checks if an ICO is open\n     */\n    modifier isIcoOpen() {\n        require(isIcoInProgress());\n        _;\n    }\n\n    /**\n     * @dev Checks if the investment amount is greater than min amount\n     */\n    modifier checkMin(){\n        require(msg.value >= minAmount);\n        _;\n    }\n\n    /**\n     * @dev Checks if msg.sender can participate in the ICO\n     */\n    modifier isWhiteListed(){\n        require(isPublic || whiteList[msg.sender]);\n        _;\n    }\n\n    /**\n     * @dev Checks if msg.sender is admin\n     * both fundsWallet and adminWallet are considered as admin\n     */\n\n    modifier isAdmin(){\n        require(msg.sender == fundsWallet || msg.sender == adminWallet);\n        _;\n    }\n\n    /**\n     * @dev Payable fallback. This function will be called\n     * when investors send ETH to buy BST\n     */\n    function() public isIcoOpen checkMin isWhiteListed payable{\n        totalRaised = totalRaised.add(msg.value);\n\n        uint256 tokenAmount = calculateTokenAmount(msg.value);\n        balances[fundsWallet] = balances[fundsWallet].sub(tokenAmount);\n        balances[msg.sender] = balances[msg.sender].add(tokenAmount);\n\n        Transfer(fundsWallet, msg.sender, tokenAmount);\n\n        // immediately transfer ether to fundsWallet\n        fundsWallet.transfer(msg.value);\n    }\n\n    /**\n     * @dev Calculates token amount for investors based on weekly rewards\n     * and msg.value\n     * @param weiAmount ETH amount in wei amount\n     * @return Total BST amount\n     */\n    function calculateTokenAmount(uint256 weiAmount) public constant returns(uint256) {\n        uint256 tokenAmount = weiAmount.mul(coinsPerETH);\n        // setting rewards is possible only for 4 weeks\n        for (uint i = 0; i < hourlyRewards.length; i++) {\n            if (now <= startTimestamp + (hourlyRewards[i].passedHours * 1 hours)) {\n                return tokenAmount.mul(100+hourlyRewards[i].percent).div(100);    \n            }\n        }\n        return tokenAmount;\n    }\n\n    /**\n     * @dev Update WhiteList for an address\n     * @param _address The address\n     * @param _value Boolean to represent the status\n     */\n    function adminUpdateWhiteList(address _address, bool _value) public isAdmin{\n        whiteList[_address] = _value;\n    }\n\n\n    /**\n     * @dev Allows admin to launch a new ICO\n     * @param _startTimestamp Start timestamp in epochs\n     * @param _durationSeconds ICO time in seconds(1 day=24*60*60)\n     * @param _coinsPerETH BST price in ETH(1 ETH = ? BST)\n     * @param _maxCap Max ETH capture in wei amount\n     * @param _minAmount Min ETH amount per user in wei amount\n     * @param _isPublic Boolean to represent that the ICO is public or not\n     */\n    function adminAddICO(\n        uint256 _startTimestamp,\n        uint256 _durationSeconds, \n        uint256 _coinsPerETH,\n        uint256 _maxCap,\n        uint256 _minAmount, \n        uint[] _rewardHours,\n        uint256[] _rewardPercents,\n        bool _isPublic\n        ) public isAdmin{\n\n        // we can't add a new ICO when an ICO is already in progress\n        assert(!isIcoInProgress());\n        assert(_rewardPercents.length == _rewardHours.length);\n\n        startTimestamp = _startTimestamp;\n        durationSeconds = _durationSeconds;\n        coinsPerETH = _coinsPerETH;\n        maxCap = _maxCap;\n        minAmount = _minAmount;\n\n        hourlyRewards.length = 0;\n        for(uint i=0; i < _rewardHours.length; i++){\n            hourlyRewards[hourlyRewards.length++] = HourlyReward({\n                    passedHours: _rewardHours[i],\n                    percent: _rewardPercents[i]\n                });\n        }\n\n        isPublic = _isPublic;\n        // reset totalRaised\n        totalRaised = 0;\n    }\n\n    /**\n     * @dev Return true if an ICO is already in progress;\n     * otherwise returns false\n     */\n    function isIcoInProgress() public constant returns(bool){\n        if(now < startTimestamp){\n            return false;\n        }\n        if(now > (startTimestamp + durationSeconds)){\n            return false;\n        }\n        if(totalRaised >= maxCap){\n            return false;\n        }\n        return true;\n    }\n\n    /**\n     * @dev Return true if an ICO is already in progress;\n     * otherwise returns false\n     */\n    function isIcoInProgress2() public constant returns(uint){\n        if(now < startTimestamp){\n            return 1;\n        }\n        if(now > (startTimestamp + durationSeconds)){\n            return 2;\n        }\n        if(totalRaised >= maxCap){\n            return 3;\n        }\n        return 4;\n    }\n}\n",
  "sourcePath": "/Users/arceus/Desktop/bi/ico/BOOSTOToken/contracts/BoostoToken.sol",
  "compiler": {
    "name": "solc",
    "version": "0.4.24+commit.e67f0147.Emscripten.clang"
  },
  "schemaVersion": "2.0.1",
  "updatedAt": "2018-09-22T01:13:50.392Z"
}