{
  "contractName": "BoostoPoolFactory",
  "abi": [
    {
      "anonymous": false,
      "inputs": [
        {
          "indexed": false,
          "name": "creator",
          "type": "address"
        },
        {
          "indexed": false,
          "name": "pool",
          "type": "address"
        }
      ],
      "name": "NewPool",
      "type": "event"
    },
    {
      "constant": false,
      "inputs": [
        {
          "name": "_startDate",
          "type": "uint256"
        },
        {
          "name": "_duration",
          "type": "uint256"
        },
        {
          "name": "_winnerCount",
          "type": "uint256"
        },
        {
          "name": "_bonus",
          "type": "uint256"
        },
        {
          "name": "_bonusInETH",
          "type": "bool"
        },
        {
          "name": "_unit",
          "type": "uint256"
        },
        {
          "name": "_BSTAmount",
          "type": "uint256"
        },
        {
          "name": "_size",
          "type": "uint256"
        },
        {
          "name": "_fundsWallet",
          "type": "address"
        },
        {
          "name": "_operatorWallet",
          "type": "address"
        }
      ],
      "name": "createNew",
      "outputs": [
        {
          "name": "created",
          "type": "address"
        }
      ],
      "payable": false,
      "stateMutability": "nonpayable",
      "type": "function"
    }
  ],
  "bytecode": "0x608060405234801561001057600080fd5b50610f51806100206000396000f3006080604052600436106100405763ffffffff7c010000000000000000000000000000000000000000000000000000000060003504166329055edd8114610045575b600080fd5b34801561005157600080fd5b50610095600435602435604435606435608435151560a43560c43560e43573ffffffffffffffffffffffffffffffffffffffff6101043581169061012435166100be565b6040805173ffffffffffffffffffffffffffffffffffffffff9092168252519081900360200190f35b6000808b8b8b8b8b8b8b8b8b8b6100d36101b3565b998a5260208a01989098526040808a01979097526060890195909552921515608088015260a087019190915260c086015260e085015273ffffffffffffffffffffffffffffffffffffffff90811661010085015291909116610120830152519081900361014001906000f080158015610150573d6000803e3d6000fd5b506040805133815273ffffffffffffffffffffffffffffffffffffffff8316602082015281519293507f77948cb83ef3caff9ac13dfab1ea1f8a6875c98370287ce587f5dbc74cc5b6b0929081900390910190a1509a9950505050505050505050565b604051610d62806101c4833901905600608060405260058054600160a060020a03191673df0041891bda1f911c4243f328f7cf61b37f965b1790556000600c5534801561003b57600080fd5b5060405161014080610d6283398101604090815281516020830151918301516060840151608085015160a086015160c087015160e088015161010089015161012090990151600f97909755601097909755600b94909455600d92909255600e805460ff1916911515919091179055600855600a5560099190915560068054600160a060020a0319908116600160a060020a03948516179091556007805490911692909116919091179055610c6e806100f46000396000f3006080604052600436106101115763ffffffff7c01000000000000000000000000000000000000000000000000000000006000350416630b97bc8681146102c15780630fb5a6b4146102e8578063276eb720146102fd57806329b8caff1461031257806331e6a70714610327578063356f55b7146103625780633b17ebb11461036c5780635578027e1461038157806356ce8c89146103b55780635ec01e4d146103ca5780636bd5450a146103df5780636f7bc9be1461041457806375b4d78c146104355780637d5c19141461044a578063907af6c01461046b578063949d225d14610480578063a1577cf514610495578063caa02e08146104aa578063e4020804146104bf578063f18d20be146104d4575b600854600090341461012257600080fd5b3360009081526003602052604090205460ff161561013f57600080fd5b6009546000541080156101575750601054600f540142105b80156101655750600f544210155b151561017057600080fd5b600654604051600160a060020a03909116903480156108fc02916000818181858888f193505050501580156101a9573d6000803e3d6000fd5b5050600554600a54604080517fa9059cbb000000000000000000000000000000000000000000000000000000008152336004820152602481019290925251600160a060020a0390921691829163a9059cbb9160448083019260209291908290030181600087803b15801561021c57600080fd5b505af1158015610230573d6000803e3d6000fd5b505050506040513d602081101561024657600080fd5b50506001805433919061025b82828101610c05565b8154811061026557fe5b6000918252602080832091909101805473ffffffffffffffffffffffffffffffffffffffff1916600160a060020a039490941693909317909255338152600390915260408120805460ff19166001908117909155815401905550005b3480156102cd57600080fd5b506102d66104e9565b60408051918252519081900360200190f35b3480156102f457600080fd5b506102d66104ef565b34801561030957600080fd5b506102d66104f5565b34801561031e57600080fd5b506102d66104fb565b34801561033357600080fd5b5061033f600435610501565b60408051600160a060020a03909316835290151560208301528051918290030190f35b61036a610546565b005b34801561037857600080fd5b5061036a61058a565b34801561038d57600080fd5b506103996004356107f7565b60408051600160a060020a039092168252519081900360200190f35b3480156103c157600080fd5b506102d661081f565b3480156103d657600080fd5b506102d6610825565b3480156103eb57600080fd5b50610400600160a060020a0360043516610854565b604080519115158252519081900360200190f35b34801561042057600080fd5b50610400600160a060020a0360043516610869565b34801561044157600080fd5b506102d661087e565b34801561045657600080fd5b50610400600160a060020a0360043516610884565b34801561047757600080fd5b506102d66108a2565b34801561048c57600080fd5b506102d66108a8565b3480156104a157600080fd5b506104006108ae565b3480156104b657600080fd5b506102d66108b7565b3480156104cb57600080fd5b506104006108bd565b3480156104e057600080fd5b5061036a6109fc565b600f5481565b60105481565b600a5481565b60005481565b60008060018381548110151561051357fe5b6000918252602080832090910154600160a060020a03168083526004909152604090912054909460ff9091169350915050565b600754600160a060020a0316331461055d57600080fd5b600e5460ff16151561056b57fe5b600d54600b546105809163ffffffff610bc016565b341461058857fe5b565b60006009546000541015151561059f57600080fd5b600754600160a060020a031633146105b657600080fd5b600b54600c54106105c357fe5b6105cb610825565b9050600460006001838154811015156105e057fe5b6000918252602080832090910154600160a060020a0316835282019290925260400190205460ff161561060f57fe5b60016004600060018481548110151561062457fe5b600091825260208083209190910154600160a060020a031683528201929092526040019020805460ff1916911515919091179055600180548290811061066657fe5b600091825260209091200154600c80546001810190915560028054600160a060020a0390931692909190811061069857fe5b6000918252602090912001805473ffffffffffffffffffffffffffffffffffffffff1916600160a060020a0392909216919091179055600e5460ff161561072f5760018054829081106106e757fe5b6000918252602082200154600d54604051600160a060020a039092169281156108fc029290818181858888f19350505050158015610729573d6000803e3d6000fd5b506107f4565b60055460018054600160a060020a039092169163a9059cbb91908490811061075357fe5b6000918252602080832090910154600d54604080517c010000000000000000000000000000000000000000000000000000000063ffffffff8816028152600160a060020a03909316600484015260248301919091525160448083019491928390030190829087803b1580156107c757600080fd5b505af11580156107db573d6000803e3d6000fd5b505050506040513d60208110156107f157600080fd5b50505b50565b600280548290811061080557fe5b600091825260209091200154600160a060020a0316905081565b600c5481565b6009546040805142815244602082015281519081900390910190206000919081151561084d57fe5b0690505b90565b60046020526000908152604090205460ff1681565b60036020526000908152604090205460ff1681565b600d5481565b600160a060020a031660009081526004602052604090205460ff1690565b60085481565b60095481565b600e5460ff1681565b600b5481565b600e546000908190819060ff1680156108ea5750600d54600b546108e69163ffffffff610bc016565b3031105b156108f857600092506109f7565b600554604080517f70a082310000000000000000000000000000000000000000000000000000000081523060048201529051600160a060020a03909216916370a08231916024808201926020929091908290030181600087803b15801561095e57600080fd5b505af1158015610972573d6000803e3d6000fd5b505050506040513d602081101561098857600080fd5b5051600054600954600a549294506109a89291900363ffffffff610bc016565b600e5490915060ff1615156109e1576109de6109d1600d54600b54610bc090919063ffffffff16565b839063ffffffff610bf616565b90505b808210156109f257600092506109f7565b600192505b505090565b60075460009081908190600160a060020a03163314610a1a57600080fd5b600954600054101580610a335750601054600f54014210155b1515610a3e57600080fd5b6009546000541115610a4c57fe5b600554604080517f70a082310000000000000000000000000000000000000000000000000000000081523060048201529051600160a060020a03909216945084916370a08231916024808201926020929091908290030181600087803b158015610ab557600080fd5b505af1158015610ac9573d6000803e3d6000fd5b505050506040513d6020811015610adf57600080fd5b505191506000821115610b8157604080517fa9059cbb000000000000000000000000000000000000000000000000000000008152336004820152602481018490529051600160a060020a0385169163a9059cbb9160448083019260209291908290030181600087803b158015610b5457600080fd5b505af1158015610b68573d6000803e3d6000fd5b505050506040513d6020811015610b7e57600080fd5b50505b50303160008111156107f157604051339082156108fc029083906000818181858888f19350505050158015610bba573d6000803e3d6000fd5b50505050565b600080831515610bd35760009150610bef565b50828202828482811515610be357fe5b0414610beb57fe5b8091505b5092915050565b600082820183811015610beb57fe5b8154818355818111156107f1576000838152602090206107f191810190830161085191905b80821115610c3e5760008155600101610c2a565b50905600a165627a7a72305820d3c997abda264cc82bf473da304433f07dc18b99238a144280a8f89802fdd3290029a165627a7a72305820966b917a3b00d84bdb62465daf701d6d7dc1ecbfbfcc7254cc0317da67ab23680029",
  "source": "pragma solidity ^0.4.25;\n\nimport 'contracts/BoostoPool.sol';\n\n\ncontract BoostoPoolFactory {\n\n    event NewPool(address creator, address pool);\n\n    function createNew(\n        uint256 _startDate,\n        uint256 _duration,\n        uint256 _winnerCount,\n        uint256 _bonus,\n        bool _bonusInETH,\n        uint256 _unit,\n        uint256 _BSTAmount,\n        uint256 _size,\n        address _fundsWallet,\n        address _operatorWallet\n    ) public returns(address created){\n        address ret = new BoostoPool(\n            _startDate,\n            _duration,\n            _winnerCount,\n            _bonus,\n            _bonusInETH,\n            _unit,\n            _BSTAmount,\n            _size,\n            _fundsWallet,\n            _operatorWallet\n        );\n        emit NewPool(msg.sender, ret);\n    }\n}\n",
  "sourcePath": "/home/projects/BOOSTOToken/contracts/BoostoPoolFactory.sol",
  "compiler": {
    "name": "solc",
    "version": "0.4.25+commit.59dbf8f1.Emscripten.clang"
  },
  "schemaVersion": "2.0.1",
  "updatedAt": "2018-09-22T03:37:12.786Z"
}