{
  "contractName": "BoostoPool",
  "abi": [
    {
      "constant": true,
      "inputs": [],
      "name": "startDate",
      "outputs": [
        {
          "name": "",
          "type": "uint256"
        }
      ],
      "payable": false,
      "stateMutability": "view",
      "type": "function"
    },
    {
      "constant": true,
      "inputs": [],
      "name": "duration",
      "outputs": [
        {
          "name": "",
          "type": "uint256"
        }
      ],
      "payable": false,
      "stateMutability": "view",
      "type": "function"
    },
    {
      "constant": true,
      "inputs": [],
      "name": "BSTAmount",
      "outputs": [
        {
          "name": "",
          "type": "uint256"
        }
      ],
      "payable": false,
      "stateMutability": "view",
      "type": "function"
    },
    {
      "constant": true,
      "inputs": [],
      "name": "totalInvestors",
      "outputs": [
        {
          "name": "",
          "type": "uint256"
        }
      ],
      "payable": false,
      "stateMutability": "view",
      "type": "function"
    },
    {
      "constant": true,
      "inputs": [
        {
          "name": "",
          "type": "uint256"
        }
      ],
      "name": "winnerList",
      "outputs": [
        {
          "name": "",
          "type": "address"
        }
      ],
      "payable": false,
      "stateMutability": "view",
      "type": "function"
    },
    {
      "constant": true,
      "inputs": [],
      "name": "paidWinners",
      "outputs": [
        {
          "name": "",
          "type": "uint256"
        }
      ],
      "payable": false,
      "stateMutability": "view",
      "type": "function"
    },
    {
      "constant": true,
      "inputs": [
        {
          "name": "",
          "type": "address"
        }
      ],
      "name": "winners",
      "outputs": [
        {
          "name": "",
          "type": "bool"
        }
      ],
      "payable": false,
      "stateMutability": "view",
      "type": "function"
    },
    {
      "constant": true,
      "inputs": [
        {
          "name": "",
          "type": "address"
        }
      ],
      "name": "investors",
      "outputs": [
        {
          "name": "",
          "type": "bool"
        }
      ],
      "payable": false,
      "stateMutability": "view",
      "type": "function"
    },
    {
      "constant": true,
      "inputs": [],
      "name": "bonus",
      "outputs": [
        {
          "name": "",
          "type": "uint256"
        }
      ],
      "payable": false,
      "stateMutability": "view",
      "type": "function"
    },
    {
      "constant": true,
      "inputs": [],
      "name": "unit",
      "outputs": [
        {
          "name": "",
          "type": "uint256"
        }
      ],
      "payable": false,
      "stateMutability": "view",
      "type": "function"
    },
    {
      "constant": true,
      "inputs": [],
      "name": "size",
      "outputs": [
        {
          "name": "",
          "type": "uint256"
        }
      ],
      "payable": false,
      "stateMutability": "view",
      "type": "function"
    },
    {
      "constant": true,
      "inputs": [],
      "name": "bonusInETH",
      "outputs": [
        {
          "name": "",
          "type": "bool"
        }
      ],
      "payable": false,
      "stateMutability": "view",
      "type": "function"
    },
    {
      "constant": true,
      "inputs": [],
      "name": "winnerCount",
      "outputs": [
        {
          "name": "",
          "type": "uint256"
        }
      ],
      "payable": false,
      "stateMutability": "view",
      "type": "function"
    },
    {
      "inputs": [
        {
          "name": "_startDate",
          "type": "uint256"
        },
        {
          "name": "_duration",
          "type": "uint256"
        },
        {
          "name": "_winnerCount",
          "type": "uint256"
        },
        {
          "name": "_bonus",
          "type": "uint256"
        },
        {
          "name": "_bonusInETH",
          "type": "bool"
        },
        {
          "name": "_unit",
          "type": "uint256"
        },
        {
          "name": "_BSTAmount",
          "type": "uint256"
        },
        {
          "name": "_size",
          "type": "uint256"
        },
        {
          "name": "_fundsWallet",
          "type": "address"
        },
        {
          "name": "_operatorWallet",
          "type": "address"
        }
      ],
      "payable": false,
      "stateMutability": "nonpayable",
      "type": "constructor"
    },
    {
      "payable": true,
      "stateMutability": "payable",
      "type": "fallback"
    },
    {
      "constant": false,
      "inputs": [],
      "name": "adminDropETH",
      "outputs": [],
      "payable": true,
      "stateMutability": "payable",
      "type": "function"
    },
    {
      "constant": false,
      "inputs": [],
      "name": "adminWithdraw",
      "outputs": [],
      "payable": false,
      "stateMutability": "nonpayable",
      "type": "function"
    },
    {
      "constant": false,
      "inputs": [],
      "name": "adminAddWinner",
      "outputs": [],
      "payable": false,
      "stateMutability": "nonpayable",
      "type": "function"
    },
    {
      "constant": true,
      "inputs": [],
      "name": "random",
      "outputs": [
        {
          "name": "",
          "type": "uint256"
        }
      ],
      "payable": false,
      "stateMutability": "view",
      "type": "function"
    },
    {
      "constant": true,
      "inputs": [
        {
          "name": "index",
          "type": "uint256"
        }
      ],
      "name": "getWalletInfoByIndex",
      "outputs": [
        {
          "name": "_addr",
          "type": "address"
        },
        {
          "name": "_isWinner",
          "type": "bool"
        }
      ],
      "payable": false,
      "stateMutability": "view",
      "type": "function"
    },
    {
      "constant": true,
      "inputs": [
        {
          "name": "addr",
          "type": "address"
        }
      ],
      "name": "getWalletInfo",
      "outputs": [
        {
          "name": "_isWinner",
          "type": "bool"
        }
      ],
      "payable": false,
      "stateMutability": "view",
      "type": "function"
    },
    {
      "constant": true,
      "inputs": [],
      "name": "isHealthy",
      "outputs": [
        {
          "name": "status",
          "type": "bool"
        }
      ],
      "payable": false,
      "stateMutability": "view",
      "type": "function"
    }
  ],
  "bytecode": "0x608060405260058054600160a060020a03191673df0041891bda1f911c4243f328f7cf61b37f965b1790556000600c5534801561003b57600080fd5b5060405161014080610d6283398101604090815281516020830151918301516060840151608085015160a086015160c087015160e088015161010089015161012090990151600f97909755601097909755600b94909455600d92909255600e805460ff1916911515919091179055600855600a5560099190915560068054600160a060020a0319908116600160a060020a03948516179091556007805490911692909116919091179055610c6e806100f46000396000f3006080604052600436106101115763ffffffff7c01000000000000000000000000000000000000000000000000000000006000350416630b97bc8681146102c15780630fb5a6b4146102e8578063276eb720146102fd57806329b8caff1461031257806331e6a70714610327578063356f55b7146103625780633b17ebb11461036c5780635578027e1461038157806356ce8c89146103b55780635ec01e4d146103ca5780636bd5450a146103df5780636f7bc9be1461041457806375b4d78c146104355780637d5c19141461044a578063907af6c01461046b578063949d225d14610480578063a1577cf514610495578063caa02e08146104aa578063e4020804146104bf578063f18d20be146104d4575b600854600090341461012257600080fd5b3360009081526003602052604090205460ff161561013f57600080fd5b6009546000541080156101575750601054600f540142105b80156101655750600f544210155b151561017057600080fd5b600654604051600160a060020a03909116903480156108fc02916000818181858888f193505050501580156101a9573d6000803e3d6000fd5b5050600554600a54604080517fa9059cbb000000000000000000000000000000000000000000000000000000008152336004820152602481019290925251600160a060020a0390921691829163a9059cbb9160448083019260209291908290030181600087803b15801561021c57600080fd5b505af1158015610230573d6000803e3d6000fd5b505050506040513d602081101561024657600080fd5b50506001805433919061025b82828101610c05565b8154811061026557fe5b6000918252602080832091909101805473ffffffffffffffffffffffffffffffffffffffff1916600160a060020a039490941693909317909255338152600390915260408120805460ff19166001908117909155815401905550005b3480156102cd57600080fd5b506102d66104e9565b60408051918252519081900360200190f35b3480156102f457600080fd5b506102d66104ef565b34801561030957600080fd5b506102d66104f5565b34801561031e57600080fd5b506102d66104fb565b34801561033357600080fd5b5061033f600435610501565b60408051600160a060020a03909316835290151560208301528051918290030190f35b61036a610546565b005b34801561037857600080fd5b5061036a61058a565b34801561038d57600080fd5b506103996004356107f7565b60408051600160a060020a039092168252519081900360200190f35b3480156103c157600080fd5b506102d661081f565b3480156103d657600080fd5b506102d6610825565b3480156103eb57600080fd5b50610400600160a060020a0360043516610854565b604080519115158252519081900360200190f35b34801561042057600080fd5b50610400600160a060020a0360043516610869565b34801561044157600080fd5b506102d661087e565b34801561045657600080fd5b50610400600160a060020a0360043516610884565b34801561047757600080fd5b506102d66108a2565b34801561048c57600080fd5b506102d66108a8565b3480156104a157600080fd5b506104006108ae565b3480156104b657600080fd5b506102d66108b7565b3480156104cb57600080fd5b506104006108bd565b3480156104e057600080fd5b5061036a6109fc565b600f5481565b60105481565b600a5481565b60005481565b60008060018381548110151561051357fe5b6000918252602080832090910154600160a060020a03168083526004909152604090912054909460ff9091169350915050565b600754600160a060020a0316331461055d57600080fd5b600e5460ff16151561056b57fe5b600d54600b546105809163ffffffff610bc016565b341461058857fe5b565b60006009546000541015151561059f57600080fd5b600754600160a060020a031633146105b657600080fd5b600b54600c54106105c357fe5b6105cb610825565b9050600460006001838154811015156105e057fe5b6000918252602080832090910154600160a060020a0316835282019290925260400190205460ff161561060f57fe5b60016004600060018481548110151561062457fe5b600091825260208083209190910154600160a060020a031683528201929092526040019020805460ff1916911515919091179055600180548290811061066657fe5b600091825260209091200154600c80546001810190915560028054600160a060020a0390931692909190811061069857fe5b6000918252602090912001805473ffffffffffffffffffffffffffffffffffffffff1916600160a060020a0392909216919091179055600e5460ff161561072f5760018054829081106106e757fe5b6000918252602082200154600d54604051600160a060020a039092169281156108fc029290818181858888f19350505050158015610729573d6000803e3d6000fd5b506107f4565b60055460018054600160a060020a039092169163a9059cbb91908490811061075357fe5b6000918252602080832090910154600d54604080517c010000000000000000000000000000000000000000000000000000000063ffffffff8816028152600160a060020a03909316600484015260248301919091525160448083019491928390030190829087803b1580156107c757600080fd5b505af11580156107db573d6000803e3d6000fd5b505050506040513d60208110156107f157600080fd5b50505b50565b600280548290811061080557fe5b600091825260209091200154600160a060020a0316905081565b600c5481565b6009546040805142815244602082015281519081900390910190206000919081151561084d57fe5b0690505b90565b60046020526000908152604090205460ff1681565b60036020526000908152604090205460ff1681565b600d5481565b600160a060020a031660009081526004602052604090205460ff1690565b60085481565b60095481565b600e5460ff1681565b600b5481565b600e546000908190819060ff1680156108ea5750600d54600b546108e69163ffffffff610bc016565b3031105b156108f857600092506109f7565b600554604080517f70a082310000000000000000000000000000000000000000000000000000000081523060048201529051600160a060020a03909216916370a08231916024808201926020929091908290030181600087803b15801561095e57600080fd5b505af1158015610972573d6000803e3d6000fd5b505050506040513d602081101561098857600080fd5b5051600054600954600a549294506109a89291900363ffffffff610bc016565b600e5490915060ff1615156109e1576109de6109d1600d54600b54610bc090919063ffffffff16565b839063ffffffff610bf616565b90505b808210156109f257600092506109f7565b600192505b505090565b60075460009081908190600160a060020a03163314610a1a57600080fd5b600954600054101580610a335750601054600f54014210155b1515610a3e57600080fd5b6009546000541115610a4c57fe5b600554604080517f70a082310000000000000000000000000000000000000000000000000000000081523060048201529051600160a060020a03909216945084916370a08231916024808201926020929091908290030181600087803b158015610ab557600080fd5b505af1158015610ac9573d6000803e3d6000fd5b505050506040513d6020811015610adf57600080fd5b505191506000821115610b8157604080517fa9059cbb000000000000000000000000000000000000000000000000000000008152336004820152602481018490529051600160a060020a0385169163a9059cbb9160448083019260209291908290030181600087803b158015610b5457600080fd5b505af1158015610b68573d6000803e3d6000fd5b505050506040513d6020811015610b7e57600080fd5b50505b50303160008111156107f157604051339082156108fc029083906000818181858888f19350505050158015610bba573d6000803e3d6000fd5b50505050565b600080831515610bd35760009150610bef565b50828202828482811515610be357fe5b0414610beb57fe5b8091505b5092915050565b600082820183811015610beb57fe5b8154818355818111156107f1576000838152602090206107f191810190830161085191905b80821115610c3e5760008155600101610c2a565b50905600a165627a7a72305820d3c997abda264cc82bf473da304433f07dc18b99238a144280a8f89802fdd3290029",
  "source": "pragma solidity ^0.4.25;\n\nimport 'zeppelin-solidity/contracts/token/ERC20/StandardToken.sol';\n\n/**\n * @title Boosto Pool\n */\ncontract BoostoPool{\n    using SafeMath for uint256;\n\n    // total number of investors\n    uint256 public totalInvestors;\n\n    address[] investorsList;\n    address[] public winnerList;\n\n    mapping(address => bool) public investors;\n    mapping(address => bool) public winners;\n\n    address private BSTContract = 0xDf0041891BdA1f911C4243f328F7Cf61b37F965b;\n    address private fundsWallet;\n    address private operatorWallet;\n\n    uint256 public unit;\n    uint256 public size;\n\n    uint256 public BSTAmount;\n\n    uint256 public winnerCount;\n    uint256 public paidWinners = 0;\n\n    uint256 public bonus;\n    bool public bonusInETH;\n\n    uint256 public startDate;\n    uint256 public duration; // in seconds\n\n    /**\n     * @dev Creates a new pool\n     */\n    constructor(\n        uint256 _startDate,\n        uint256 _duration,\n        uint256 _winnerCount,\n        uint256 _bonus,\n        bool _bonusInETH,\n        uint256 _unit,\n        uint256 _BSTAmount,\n        uint256 _size,\n        address _fundsWallet,\n        address _operatorWallet\n        ) public{\n        \n        startDate = _startDate;\n        duration = _duration;\n        \n        winnerCount = _winnerCount;\n        bonus = _bonus;\n        bonusInETH = _bonusInETH;\n        unit = _unit;\n        BSTAmount = _BSTAmount;\n        size = _size;\n\n        fundsWallet = _fundsWallet;\n        operatorWallet = _operatorWallet;\n    }\n\n    /**\n     * @dev Checks if the pool is still open or not\n     */\n    modifier isPoolOpen() {\n        require(totalInvestors < size && now < (startDate + duration) && now >= startDate);\n        _;\n    }\n\n    /**\n     * @dev Checks if the pool is closed\n     */\n    modifier isPoolClosed() {\n        require(totalInvestors >= size || now >= (startDate + duration));\n        _;\n    }\n\n    /**\n     * @dev Checks if the pool is finished successfully\n     */\n    modifier isPoolFinished() {\n        require(totalInvestors >= size);\n        _;\n    }\n\n    /**\n     * @dev modifier for check msg.value\n     */\n    modifier checkInvestAmount(){\n        require(msg.value == unit);\n        _;\n    }\n\n    /**\n     * @dev check if the sender is already invested\n     */\n    modifier notInvestedYet(){\n        require(!investors[msg.sender]);\n        _;\n    }\n\n    /**\n     * @dev check if the sender is admin\n     */\n    modifier isAdmin(){\n        require(msg.sender == operatorWallet);\n        _;\n    }\n\n    /**\n     * @dev fallback function\n     */\n    function() checkInvestAmount notInvestedYet isPoolOpen payable public{\n        fundsWallet.transfer(msg.value);\n\n        StandardToken bst = StandardToken(BSTContract);\n        bst.transfer(msg.sender, BSTAmount);\n\n        investorsList[investorsList.length++] = msg.sender;\n        investors[msg.sender] = true;\n\n        totalInvestors += 1;\n    }\n\n    /**\n     * @dev Allows the admin to tranfer ETH to SC \n     * when bounus is in ETH\n     */\n    function adminDropETH() isAdmin payable public{\n        assert(bonusInETH);\n        assert(msg.value == winnerCount.mul(bonus));\n    }\n\n    /**\n     * @dev Allows the admin to withdraw remaining token and ETH when\n     * the pool is closed and not reached the goal(no rewards)\n     */\n    function adminWithdraw() isAdmin isPoolClosed public{\n        assert(totalInvestors <= size);\n\n        StandardToken bst = StandardToken(BSTContract);\n        uint256 bstBalance = bst.balanceOf(this);\n\n        if(bstBalance > 0){\n            bst.transfer(msg.sender, bstBalance);\n        }\n\n        uint256 ethBalance = address(this).balance;\n        if(ethBalance > 0){\n            msg.sender.transfer(ethBalance);\n        }\n    }\n\n    /**\n     * @dev Selects a random winner and transfer the funds.\n     * This function could fail when the selected wallet is a duplicate winner\n     * and need to try again to select an another random investor.\n     * When we have N winners, the admin need to call this function N times. This is \n     * not an efficient method but since we have just a few winners it will work fine.\n     */\n    function adminAddWinner() isPoolFinished isAdmin public{\n        assert(paidWinners < winnerCount);\n        uint256 winnerIndex = random();\n        assert(!winners[investorsList[winnerIndex]]);\n\n        winners[investorsList[winnerIndex]] = true;\n        winnerList[paidWinners++] = investorsList[winnerIndex];\n\n        if(bonusInETH){\n            investorsList[winnerIndex].transfer(bonus);\n        }else{\n            StandardToken(BSTContract).transfer(investorsList[winnerIndex], bonus);\n        }\n    }\n\n    /**\n     * @dev Selects a random winner among all investors\n     */\n    function random() public view returns (uint256) {\n        return uint256(keccak256(block.timestamp, block.difficulty))%size;\n    }\n\n    /**\n     * @dev Returns the details of an investor by its index.\n     * UI can use this function to show the info.\n     * @param index Index of the investor in investorsList\n     */\n    function getWalletInfoByIndex(uint256 index) \n            public constant returns (address _addr, bool _isWinner){\n        _addr = investorsList[index];\n        _isWinner = winners[_addr];\n    }\n\n    /**\n     * @dev Returns the details of an investor\n     * UI can use this function to show the info.\n     * @param addr Address of the investor\n     */\n    function getWalletInfo(address addr) \n            public constant returns (bool _isWinner){\n        _isWinner = winners[addr];\n    }\n\n    /**\n     * @dev checks if there is enough funds in the contract or not\n     * @param status Boolean to show if there is enough funds or not\n     */\n    function isHealthy() \n            public constant returns (bool status){\n\n        // ETH balance is not enough\n        if(bonusInETH && address(this).balance < winnerCount.mul(bonus)){\n            return false;\n        }\n        \n        uint256 bstBalance = StandardToken(BSTContract).balanceOf(this);\n\n        uint256 enoughBalance = BSTAmount.mul(size - totalInvestors); \n        if(!bonusInETH){\n            enoughBalance = bstBalance.add(winnerCount.mul(bonus));\n        }\n        if(bstBalance < enoughBalance){\n            return false;\n        }\n        return true;\n    }\n}\n",
  "sourcePath": "contracts/BoostoPool.sol",
  "compiler": {
    "name": "solc",
    "version": "0.4.25+commit.59dbf8f1.Emscripten.clang"
  },
  "schemaVersion": "2.0.1",
  "updatedAt": "2018-09-22T03:37:12.781Z"
}